:020000040800F2
:100000003808002005010008EB250008931D0008B2
:10001000E9250008E70A0008E52A000800000000BA
:10002000000000000000000000000000332700086E
:10003000E90A000800000000312700083527000801
:100040001F0100081F0100081F0100081F01000810
:100050001F0100081F0100081F0100081F01000800
:100060001F0100081F0100081F0100081F010008F0
:100070001F0100081F0100081F0100081F010008E0
:100080001F0100081F0100081F0100081F010008D0
:100090001F0100081F0100081F0100081F010008C0
:1000A000D1270008F5270008E9270008DD27000808
:1000B0001F01000801280008000000001F010008BF
:1000C0001F01000800000000000000001F010008E0
:1000D000000000001F0100081F01000800000000D0
:1000E0001F0100081F0100081F010008DFF810D0E1
:1000F00000F0BCFC00480047153C0008AFF300804E
:10010000380800200648804706480047FEE7FEE71B
:10011000FEE7FEE7FEE7FEE7FEE7FEE7FEE7FEE7B7
:10012000CF270008ED000008202A04DB203A21FA3E
:1001300002F00021704721FA02F3D040C2F1200200
:100140009140084319467047D2B201E000F8012BF4
:10015000491EFBD270470022F6E710B513460A4647
:1001600004461946FFF7F0FF204610BDF0B480EAC0
:100170000102D40F4200B2EB410F02D20246084600
:1001800011464A0042D0C30DDDB2C1F3C752AD1AC9
:10019000202D35DAC1F3160141F4000204B15242B8
:1001A000C5F1200602FA06F12A411044B3EBD05FF4
:1001B00023D0C4B1012DA0EBC35009DCF0BC4FF03B
:1001C000004202EAC352DBB200F5000000F041BB7E
:1001D000400000F1807000EBC350A0F1807040EA55
:1001E000D170490009E0490841EAC071A0EBC35051
:1001F00000F50000400800EBC350F0BC00F020BB4D
:100200006142012202EB4101001BF6E7F0BC70479E
:1002100081F00041AAE780F00040A7E780EA0102F0
:1002200010B502F00043400022D04A001FD0010E5A
:1002300001EB1261C0F35600C2F3560240F4000015
:1002400042F40002A0FB022000047F39140400D015
:10025000401C50EA124001D44000491EC2B20C06B4
:1002600004EBD010401C4008802A02D003E000209C
:1002700010BD20F00100002900DA0020184310BD55
:1002800030B480EA010202F0004530F0004221F073
:10029000004013D090B1C30DD40DC2F31601C0F3CA
:1002A0001600E41A41F4000140F400027D3491424A
:1002B00001D3641C00E04900002C02DA30BC0020AD
:1002C00070474FF400000023914201D3891A034381
:1002D00040084FEA4101F7D151B1914202D14FF0AC
:1002E000004105E002D24FF0010101E06FF0010191
:1002F00003EBC450284430BC00F0A2BA420005D041
:10030000C0F3C7525242914201DC0020704700EB1B
:10031000C15070472DE9FE4F804681EA0300C00FAF
:100320000C46009021F0004123F00045B8EB02009C
:10033000A94105D24046214690461C460B4602463E
:1003400023F00040104347D0270DC7F30A00C3F342
:100350000A510290401A019040286BDAC3F313004F
:1003600040F4801B0098924620B10023D2EB030A90
:1003700063EB0B0B01985946C0F14002504600F068
:100380003EFA06460D4650465946019A00F046FA96
:1003900010EB08006141002487EA115284EAE773F8
:1003A0001A4340D0009A62B3019A012A4FEA0752D9
:1003B00015DC001B61EB02014FF0004202EA07521C
:1003C000CDE90042001C41F5801132462B4600F079
:1003D0007DFA03B0BDE8F08F40462146F9E7001BE7
:1003E00061EB0201001C41F5801300185B412018ED
:1003F000A2F5001747EB030140EAD570B6196D412D
:1004000011E06D084FEA360645EAC0754FEA07521B
:10041000001B61EB0201001C41F5801149084FEA05
:1004200030000019514132462B4603B0BDE8F04F71
:1004300000F03DBA0098012240000023D0EB0202F8
:1004400063EBE073009821464FEAE074B8EB0000DC
:1004500061EB0401E9E783F000435BE781F00041D1
:1004600058E72DE9FE4F81EA030404F0004421F02F
:10047000004100944FF0000B23F0004350EA0104C8
:100480005ED052EA03045BD0C3F30A54C1F30A55A9
:100490002C44A4F2F3340194A0FB0254C1F31301E1
:1004A00041F48011C3F3130343F4801301FB0244AE
:1004B00000FB034E840A970A44EA815447EA8357B3
:1004C000A4FB076802958D0A05FB07854FEA932C6C
:1004D00004FB0C542705029D4FEA065847EA1637DD
:1004E000B5EB08056EEB070C870E920E47EA8117F5
:1004F00042EA8312A7FB0201B6EB0B0164EB000496
:100500002B0D43EA0C335E1844EB1C50DA4651467F
:10051000E7FB0201C5F313044FEA0B3343EA14531C
:100520004FEA0432019C43EA0603A4F10C0402944E
:10053000009CCDE900B400F0C9F903B0BDE8F08F2C
:1005400000200146F9E72DE9F04D81EA030404F0AB
:10055000004B21F0004514464FF0000A23F0004103
:1005600050EA050220D054EA01021DD0C5F30A5713
:100570000246C5F31303C1F31300C1F30A5640F456
:10058000801543F48013A7EB0608101BD64608F22B
:10059000FD3873EB050002D308F1010801E0921861
:1005A0005B41B8F1000F03DA00200146BDE8F08D91
:1005B00000204FF48011064684460EE0171B73EBB3
:1005C000050705D3121B63EB050306434CEA010C38
:1005D00049084FEA300092185B4150EA0107EDD11B
:1005E00052EA030012D082EA040083EA05010843BC
:1005F00005D0101BAB4106D20122002306E00022E9
:100600004FF0004302E06FF0010253101AEB0600B6
:100610004CEB085110EB0A0041EB0B01BDE8F04D2B
:1006200000F045B970B521F0004303430CD0C1F38D
:100630000A550024D5EB040564EB0403D617AD1A64
:10064000B34102DB0020014670BD201841EB02518E
:1006500070BDC10F80EAE0700844CA0796230021EC
:1006600000F0F7B896230022114600F0F2B80EB55C
:10067000C10F80EAE0700844CA07002140F233430A
:100680008DE80E000A460B4600F020F903B000BDCD
:1006900000F0004220F00040C10DC0F3160040F40D
:1006A00000007F2901DA00207047962903DCC1F1A0
:1006B0009601C84001E096398840002AF4D04042B3
:1006C000704720F00040C10DC0F3160040F4000058
:1006D0007F2901DA00207047962903DCC1F19601D9
:1006E000C840704796398840704700F0004230F0AB
:1006F00000400AD0C10D01F56071C0F3160042EA56
:100700000151C2084007114370470020014670475D
:1007100001F0004330B421F0004150EA010206D05C
:100720000A0DA2F56072C1F31301002A02DC30BC8D
:1007300000207047440F44EAC104C100E01830BCF7
:1007400000EBC25000F07CB8002801DBC0F1004093
:10075000002901DBC1F1004181427047002801DB23
:10076000C0F10040002901DBC1F10041884270471F
:1007700030B50B46014600202022012409E021FA71
:1007800002F59D4205D303FA02F5491B04FA02F56E
:100790002844151EA2F10102F1DC30BD2DE9F05F05
:1007A0000546002092469B468846064681464024E0
:1007B0001BE02846414647462246FFF7B5FC534614
:1007C0005A46C01A914110D311461846224600F0ED
:1007D00016F82D1A67EB01084F462246012000212A
:1007E00000F00DF817EB00094E41201EA4F10104A2
:1007F000DFDC484631462A464346BDE8F09F202AC2
:1008000004DB203A00FA02F1002070479140C2F167
:10081000200320FA03F3194390407047202A06DB97
:10082000CB17203A41FA02F043EAE07306E041FABE
:1008300002F3D040C2F120029140084319467047AC
:100840000029A8BF7047401C490008BF20F00100E4
:10085000704710B4B0FA80FC00FA0CF050EA0104C2
:1008600004BF10BC704749B1CCF1200421FA04F454
:1008700011FA0CF118BF012121430843A3EB0C012D
:10088000CB1D4FEA00614FEA102042BF002010BC90
:10089000704700EBC35010440029A4BF10BC704740
:1008A000401C490008BF20F0010010BC704710B583
:1008B000141E73F1000408DA401C41F10001921883
:1008C0005B411A4301D120F0010010BD2DE9F04D2C
:1008D00092469B4611B1B1FA81F202E0B0FA80F281
:1008E00020329046FFF78BFF04460F4640EA0A008D
:1008F00041EA0B0153465A46084313D0114653EAC6
:10090000010019D0C8F140025046FFF70DFC054622
:100910000E46504659464246FFF771FF084305D040
:10092000012004E020463946BDE8F08D0020054353
:1009300046EAE0762C4337430A986305E40AA0EBC5
:1009400008000022FD0A44EA47540A3002D500207C
:100950000146E9E7010510196941DDE9084500197B
:100960006941BDE8F04DA2E72DE9F04D00231A469C
:100970001B1A8A4103DB00200146BDE8F08DC1F35C
:100980000A52C1F3130141F480154FF0000BD10757
:1009900002D100186D41521E0027044640F2FF119B
:1009A000384601EB620A3E468046024600204FF47C
:1009B0008011FFF7B9FBC2197141BB1846EB01006A
:1009C000B4EB030C75EB000C04D3E41A65EB0005E3
:1009D00017460E46241908F101006D41804634285F
:1009E000E3DDF91946EB0600091BA84103D24FF0DD
:1009F000FF32134601E0002213461BEB070046EBD3
:100A00000A51BDE8F04DFFF752BFC1F30A52C1F3DE
:100A1000130140F2FF3341F480119A4202DA0020C0
:100A20000146704740F233439A42A2F2334202DC5D
:100A30005242FFF779BBFFF7E2BE000030B5041E5B
:100A400071F1000404DB4FF00044404264EB01010B
:100A5000141E73F1000405DB1C464FF000435242A4
:100A600063EB0403994208BF904230BD064C074D2A
:100A700006E0E06840F0010394E80700984710346E
:100A8000AC42F6D3FFF736FB103F0008303F0008BA
:100A900070B58C1810F8015B15F0070301D110F840
:100AA000013B2A1106D110F8012B03E010F8016B6D
:100AB00001F8016B5B1EF9D12B0705D40023521EF0
:100AC0000DD401F8013BFAE710F8013BCB1A921C58
:100AD00003E013F8015B01F8015B521EF9D5A14256
:100AE000D8D3002070BDFEE7704772B6FEE7000065
:100AF00070B5044600F0F8F80546601C02D00448C2
:100B00000078044400F0F0F8401BA042FAD370BD16
:100B1000240100202DE9F84FDFF89C91002409F111
:100B2000040A0AF1040B23460F270BF1040EBBE065
:100B30000125A5402A40AA4276D1DFF880C14E683F
:100B4000A6EB0C0866452BD00DDC032E34D005DC5B
:100B500036B3012E19D0022E2FD11BE0112E16D044
:100B6000122E2AD119E0B8F5881F19D006DCB8F585
:100B7000803F15D0B8F5801F1FD111E0B8F5001FD8
:100B80000ED0B8F5041F18D10AE0CB6815E0CB6889
:100B90001B1D12E0CB6808330FE0CB680C330CE070
:100BA0008B682BB1012B4FF0080303D0456104E0A3
:100BB000042302E0056100E00023FF2A01D8064675
:100BC00001E000F104064FEA840501D9A5F12005F2
:100BD000D6F8008007FA05FC28EA0C0803FA05F5A8
:100BE00048EA0508C6F800804D68ED005BD5344D35
:100BF000AE6946F00106AE61AD6924F0030605F06A
:100C0000010500952F4D06EB050CDCF80850A607F2
:100C1000360F07FA06F825EA0805DFF8AC804045EC
:100C200003D14FF0000810E03DE0DFF8A080404520
:100C300002D14FF0010808E0DFF89480404502D16E
:100C40004FF0020801E04FF0030808FA06F848EAFE
:100C50000508CCF808804D68D9F80060ED034D46D2
:100C600001D5164300E096432E604D68DAF8006027
:100C7000AD03554601D5164300E096432E604D68FE
:100C8000DBF80060ED025D4601D5164300E09643B7
:100C90002E604D68DEF80060AD02754601D5164342
:100CA00000E096432E60641C0A6832FA04F57FF473
:100CB0003FAFBDE8F88F00000004014000001110B4
:100CC000001002400000014000080140000C0140FB
:100CD000001001408068084000D0012070470AB130
:100CE000016170470904FBE7014880687047000014
:100CF0002401002070B5040025D094F83D000025A3
:100D000020B984F83C50204600F0B8F8242084F83C
:100D10003D002068016821F0010101602068016840
:100D200041F4004101602068016821F40041016044
:100D300000F010FA4D4A6168914201D84C4900E038
:100D40004C49884201D2012070BD4B492368B0FB59
:100D5000F1F15E6826F03F060E435E6063689342E1
:100D600006D94FF4967359434FF47A73B1FBF3F1FC
:100D70002368491C1E6A26F03F06314319626168E8
:100D8000914210D84900401EB0FBF1F2521CC2F350
:100D90000B02042A01D2042022E0B0FBF1F0401C37
:100DA000C0F30B001CE0A268F2B301EBC10303EB3C
:100DB0000116431EB3FBF6F35B1C43F480431B0593
:100DC00049D092B301EBC10202EB0111401EB0FB0E
:100DD000F1F0401CC0F30B0040F4804040F40040B0
:100DE0002168CA694CF6FF739A431043C861D4E97D
:100DF000071001432068026822F0C002114301601D
:100E0000D4E9030101432068826848F2FF339A4322
:100E100011438160D4E9050108432168CA6822F0C2
:100E2000FF021043C86001E00EE016E02068016890
:100E300041F0010101602564202084F83D00256314
:100E400084F83E50002070BD01EB4106431EB3FB09
:100E5000F6F35B1CB3E70120C2E701EB4101401E42
:100E6000B0FBF1F0401CC0F30B00B7E7A086010017
:100E700080841E0000093D0040420F0010B586B07E
:100E80000021009101910291039100681649884266
:100E900028D1164C03200390A06940F00800A061FF
:100EA000A069694600F0080004904FF4407000907B
:100EB000122001900E48FFF72DFE0E48416841F0C8
:100EC000E06141F002014160E16941F40011E1613A
:100ED000E16901F400110491416841F0E06141F0E1
:100EE0000201416006B010BD0054004000100240F5
:100EF000000C014000000140024881680278114462
:100F00008160704724010020074810B5016841F056
:100F100010010160032000F075F80F2000F006F8C2
:100F200000F024F8002010BD0020024070B50D4DE7
:100F300004464FF47A712878B1FBF0F00A49096849
:100F4000B1FBF0F000F0ECFA48B9102C07D2002207
:100F50002146501E00F036F800206C6070BD012064
:100F600070BD000024010020300100200C4808B5AD
:100F7000816941F001018161816901F00101009104
:100F8000C16941F08051C161C06900F0805000909A
:100F90000448416821F0E06141F08061416008BD92
:100FA0000010024000000140002809DB00F01F0291
:100FB000012191404009800000F1E020C0F80011BB
:100FC00070470000F0B40E4B1B680C46C3F30223BD
:100FD000C3F10705042D00D90425191D072901D2E5
:100FE000002300E0DB1E012606FA05F1491E214020
:100FF00099409E40761E16403143F0BC01F098BDEA
:101000000CED00E0064900F0070208684FF6FF0308
:10101000184040EA0220034A10430860704700006D
:101020000CED00E00000FA052DE9F0470F46050041
:1010300061D0434E306800F00700B84209D23068F2
:1010400020F0070038433060306800F00700B842F5
:1010500051D128683B4C810712D5400703D5606801
:1010600040F4E06060602878000703D5606840F4D1
:10107000605060606068A96820F0F000084360601C
:101080002878C00728D06868012810D02168022875
:1010900010D0890700292EDA616821F0030101438D
:1010A0006160FFF721FE804641F288390DE021683A
:1010B0008903EFE78901EDE7FFF716FEA0EB0801D2
:1010C000494502D90320BDE8F0876068696800F0EF
:1010D0000C00B0EB810FEFD1306800F00700B84290
:1010E0000BD9306820F0070038433060306800F0DA
:1010F0000700B84201D00120E5E72878400705D570
:101100006068E96820F4E0600843606028780007C0
:1011100006D56068296920F4605040EAC10060602B
:1011200000F038F86168084AC1F30311515CC84007
:101130000649086006480068FFF7F8FE0020C2E78D
:101140000020024000100240A43E000830010020B0
:10115000280100200448054900684968044AC1F391
:101160000221515CC840704730010020001002404D
:10117000B43E00080448054900684968044AC1F3C0
:10118000C221515CC840704730010020001002406D
:10119000B43E000812A185B00FC98DE80F0014A05D
:1011A000144A006804905168134801F00C03042BA2
:1011B00010D0082B0ED1C1F38343C9031DF80300DF
:1011C0000AD5516804AAC1F34041515C0A4A504310
:1011D000B0FBF1F005B0704708494843FAE700005A
:1011E00002030405060708090A0B0C0D0E0F101068
:1011F000010200000010024000127A0000093D00C8
:101200002DE9F84F040070D02078C04DC00749D0B8
:101210006868C0F38100012807D06868C0F38100C6
:10122000022809D16868C00306D52868800339D52B
:1012300060680028E7D035E06068B0F5803F0BD0EB
:1012400010B1B0F5A02F11D0286820F480302860AC
:10125000286820F4802002E0286840F4803028606C
:10126000606890B1FFF740FD06460AE0286840F448
:1012700080202860F0E700BFFFF736FD801B642860
:1012800073D828688003F7D50CE0FFF72DFD0646DC
:1012900005E000BFFFF728FD801B6428F0D8286810
:1012A0008003F7D420789A4E80074FF001094FF061
:1012B000000839D5686810F00C0F07D06868C0F3D3
:1012C0008100022809D16868C00306D42868800715
:1012D00014D52069012808D110E02069B0B1C6F802
:1012E0000090FFF701FD074605E00AE1FFF7FCFC6F
:1012F000C01B0228C4D828688007F7D52868616910
:1013000020F0F80040EAC10028600DE0C6F8008037
:10131000FFF7EAFC074604E0FFF7E6FCC01B0228E3
:1013200023D828688007F7D4207800072CD579487F
:10133000A169D9B1C0F80090FFF7D6FC074604E0D8
:10134000FFF7D2FCC01B02280FD8686A8007F7D5C8
:1013500071484FF4FA510068B0FBF1F0009000BF03
:101360000098411E0091FAD20EE080E0C0F80080A3
:10137000FFF7BAFC074604E0FFF7B6FCC01B0228E3
:1013800075D8686A8007F7D42078400760D5E86987
:101390000027C00008D4E86940F08050E861E8699F
:1013A000012700F0805000905C480168C90513D403
:1013B0000168834641F480710160FFF795FC824625
:1013C00006E000BFFFF790FCA0EB0A0064284ED8AF
:1013D000DBF80000C005F5D5E06801280AD008B1A7
:1013E000052813D0286A20F001002862286A20F01E
:1013F000040002E0286A40F001002862E06841F23F
:10140000883B98B1FFF770FC82460BE0286A40F0F9
:1014100004002862EEE700BFFFF766FCA0EB0A01BC
:1014200059455AD8286A8007F6D50CE0FFF75CFCCE
:10143000824605E0FFF758FCA0EB0A0159454CD85D
:10144000286A8007F6D41FB1E86920F08050E8616F
:10145000E06988B36968C1F38101022944D0022898
:10146000C6F8608004D0FFF73FFC044638E034E063
:10147000FFF73AFC074604E0FFF736FCC01B0228E2
:101480002BD828688001F7D4206AB0F5803F05D1B9
:101490006868A16820F4003008436860D4E9080156
:1014A0000843696821F4741108436860C6F86090C5
:1014B000FFF71AFC044606E025E000BFFFF714FC26
:1014C000001B022809D828688001F7D51BE000BF5F
:1014D000FFF70AFC001B022802D90320BDE8F88FA1
:1014E00028688001F4D40EE00128F7D06868226AE9
:1014F00000F48031914204D1616A00F47010884296
:1015000001D00120EAE70020E8E7000000100240D7
:10151000000042428004424230010020007000403E
:1015200010B5401EB0F1807F01D3012010BD4FF0F7
:10153000E02460610F21601701F0FAFA0020A06139
:1015400007202061002010BD7047704770B590F8EB
:101550003C20012A23D0012480F83C40022280F85C
:101560003D2003685A689D6822F070060A6832437D
:101570005A600C4B02689A4205D0B2F1804F02D0FB
:10158000094B9A4204D1496825F0800319439160C0
:1015900080F83D40002180F83C10084670BD0220D4
:1015A00070BD0000002C01400004004090F83D1088
:1015B000012901D001207047022180F83D10006808
:1015C0000949884205D0B0F1804F02D007498842CE
:1015D00004D1816801F00701062903D0016841F0B8
:1015E0000101016000207047002C01400004004010
:1015F00090F83D10012901D001207047022180F8A8
:101600003D100168CA6842F00102CA6000680A49D8
:10161000884205D0B0F1804F02D00849884204D1F9
:10162000816801F00701062903D0016841F001013A
:101630000160002070470000002C014000040040C1
:101640002DE9F0410D46040003D094F83D0018B197
:1016500008E00120BDE8F081002084F83C0020462D
:1016600000F040F8022084F83D002068816844F2D0
:10167000070291438160211D206801F0C7F82268AC
:1016800090689169166A2B68AF69034340F2033092
:10169000814341EA0721A868EF6908434FF6FC41FE
:1016A0008843E96840EA0720014328692F6A00015E
:1016B00040EA0730084369686D6926F0220646EA69
:1016C0000515294393602268906154F8460B016226
:1016D000012004F81F09E0752076E0762077A075D8
:1016E0000020B7E700B585B000210091019102917B
:1016F0000391334A01683348914235D1816941F4FD
:1017000000618161816901F400610491816941F0A6
:10171000040181618069694600F0040004904FF47F
:10172000407000902848FFF7F5F900221146182074
:10173000FFF748FC1820FFF737FC0022114619205C
:10174000FFF740FC1920FFF72FFC002211461A205A
:10175000FFF738FC1A20FFF727FC002211461B2058
:10176000FFF730FC1B2027E0184A914226D1C169BF
:1017700041F00201C161C16901F002010491816976
:1017800041F0080181618069694600F00800049019
:10179000302000900E48FFF7BDF90E48416821F453
:1017A000406141F0E06141F4006141600022114676
:1017B0001D20FFF707FC1D20FFF7F6FB05B000BD5D
:1017C000002C0140001002400008014000040040CD
:1017D000000C01400000014070B590F83E600446E6
:1017E00090F83F5090F8423090F84320022021B109
:1017F00004290ED0012E1BD114E0012E18D1012B8B
:1018000016D184F83E0084F84200012200212068AD
:1018100020E0012D0CD1012A0AD184F83F0084F880
:10182000430014E0012D03D1012B01D1012A01D085
:10183000012070BD84F83E0084F83F0084F8420027
:1018400084F8430001220021206801F00DF80122F4
:101850000421206801F008F82068016841F00101C6
:101860000160002070BD704770B5044600680169D2
:101870004FF00005C943890715D4C168C9438907DA
:1018800011D4E91E0161012020772068806980075A
:10189000204602D0FFF7E7FF04E000F0BDF8204645
:1018A00000F05EF9257720680169C943490717D41C
:1018B000C168C943490713D46FF0040101610220D4
:1018C00020772068806910F4407F204602D0FFF71F
:1018D000CAFF04E000F0A0F8204600F041F92577A7
:1018E00020680169C943090716D4C168C9430907BB
:1018F00012D46FF008010161042020772068C069CC
:101900008007204602D0FFF7AEFF04E000F084F825
:10191000204600F025F9257720680169C943C906EA
:1019200017D4C168C943C90613D46FF0100101610F
:10193000082020772068C06910F4407F204602D03C
:10194000FFF791FF04E000F067F8204600F008F987
:10195000257720680169C943C90708D1C168C9430F
:10196000C90704D1891E0161204600F045F92068AD
:101970000169C943090609D4C168C943090605D4E8
:101980006FF0800101612046FFF7DEFD20680169EC
:10199000C943490609D4C168C943490605D46FF053
:1019A00040010161204600F028F920680169C9431F
:1019B00089060BD4C168C943890607D46FF020019A
:1019C00001612046BDE87040FFF7BFBD70BD00005B
:1019D00000B585B00021009101910291039100684A
:1019E000B0F1804F11D10A48816941F00401816151
:1019F0008069694600F0040004900C2000900220E9
:101A0000019003900348FFF785F805B000BD000082
:101A10000010024000080140704770B5044690F87D
:101A20003C000D4601280AD0012084F83C0042B158
:101A3000042A18D0082A2AD00C2A4DD139E00220D5
:101A400070BD206800F01EFF2068816941F0080128
:101A500081612068816921F00401816120688169C8
:101A60002A69114311E0206800F034FF2068816981
:101A700041F4006181612068816921F480618161A4
:101A8000206881692A6941EA0221816124E0206895
:101A900000F04CFF2068C16941F00801C161206875
:101AA000C16921F00401C1612068C1692A6911433B
:101AB00011E0206800F066FF2068C16941F4006110
:101AC000C1612068C16921F48061C1612068C16978
:101AD0002A6941EA0221C161002084F83C0070BDFE
:101AE00010B5040003D094F83D0010B107E00120C8
:101AF00010BD002084F83C00204600F01FF80220B2
:101B000084F83D00211D206800F080FE012084F84B
:101B1000460084F83E0084F83F0084F8400084F8D2
:101B2000410084F8420084F8430084F8440084F8BB
:101B3000450084F83D00002010BD000008B5006895
:101B4000B0F1804F08D10548C16941F00101C16180
:101B5000C06900F00100009008BD000000100240C4
:101B60007047000010B50446022249B104290ED086
:101B7000082913D094F84100012816D0012010BD87
:101B800094F83E000128F9D184F83E200FE094F843
:101B90003F000128F2D184F83F2008E094F840008B
:101BA0000128EBD184F8402001E084F84120012293
:101BB000206800F059FE0E492068884203D1426C2B
:101BC00042F4004242642068884205D0B0F1804F60
:101BD00002D00849884204D1816801F00701062932
:101BE00003D0016841F001010160002010BD000038
:101BF000002C0140000400407047704770B504009D
:101C000004D094F83D00002510B106E0012070BD1D
:101C100084F83C50204600F023F8242084F83D004E
:101C20002068C16821F40051C160204600F0CCFE5C
:101C30002068016921F4904101612068416921F027
:101C40002A0141612068C16841F40051C1602564E6
:101C5000202084F83D0084F83E00002070BD000084
:101C600030B585B000240094019402940394006878
:101C7000174988422AD11748816941F4804181611E
:101C8000816901F480410491816941F00801816119
:101C90008069114D00F0080004904020009002205F
:101CA00001900320039069462846FEF733FF802009
:101CB000CDE90004694628460294FEF72BFF074849
:101CC000416841F0E06141F00401416005B030BD80
:101CD0000038014000100240000C014000000140AB
:101CE0002DE9F843044690F83D001F4616460D4680
:101CF00020284CD1C5B1BEB194F83C00012846D093
:101D0000012084F83C004FF00008C4F840802120F6
:101D100084F83D00FEF7E8FFA6848146E684A068CB
:101D2000B0F5805F03D004E00120BDE8F8832069AE
:101D300028B12E465FF0000584F83C800EE00026B6
:101D4000FAE78021204600F09BFEA0B9AEB116F85C
:101D5000010B21684860E08C401EE084E08C4B461B
:101D60004FF0000200970028EBD14FF040012046D1
:101D700000F086FE30B10320D7E735F8020BC0F340
:101D80000800E6E7202084F83D000020CDE702208F
:101D9000CBE7FEE72DE9FF4F91B0CE48DDE91E8984
:101DA0000090CD481E4601680491D0E9015102918E
:101DB000C068049901900846FEF730FA29460D9054
:101DC0000846FEF72BFA0C9002990846FEF726FA11
:101DD0000B9001990846FEF721FA0A9029460498CB
:101DE000FEF71CFA099002990498FEF717FA834649
:101DF00028460199FEF712FA8246DDE90110FEF746
:101E00000DFAB64C0690D4E90301FEF707FA6169B2
:101E1000FEF704FA10F0FF4F7ED049460846FEF761
:101E2000FDF9074641460846FEF7F8F904463146F3
:101E30000846FEF7F3F92146FEF798F93946FEF712
:101E400095F901F027FD044601463046FEF7E6F914
:101E5000149021464046FEF7E1F91E90214648467F
:101E6000FEF7DCF9814659465046FEF7D1F90121CB
:101E7000FEF744FA074606990998FEF777F901211B
:101E8000FEF73CFA0646DDE90C10FEF7C1F90B99A6
:101E9000FEF7BEF90A99FEF769F90446314648464D
:101EA000FEF7BCF9804621461E98FEF7B7F9414679
:101EB000FEF7AEF9824621461498FEF7AFF90446C4
:101EC00039464846FEF7AAF92146FEF7A1F98346AE
:101ED00039461E98FEF7A2F9044631461498FEF7DB
:101EE0009DF92146FEF794F9814651460098FEF788
:101EF00095F9794C3C3C216BFEF738F9804620631C
:101F000059460098FEF78AF9616BFEF72FF90646ED
:101F100060634946009800E0D8E0FEF77FF9A16BC6
:101F2000FEF724F90746A063206941460590FEF7B5
:101F300075F98046E06851460790FEF76FF91199F0
:101F4000FEF714F94146FEF711F98246314605982D
:101F5000FEF764F9044659460798FEF75FF91299AF
:101F6000FEF704F92146FEF701F9064639460598C1
:101F7000FEF754F9044649460798FEF74FF91399BE
:101F8000FEF7F4F82146FEF7F1F804460146019801
:101F9000FEF744F9074631460298FEF73FF98046BE
:101FA00085F000405146FEF739F94146FEF730F919
:101FB0003946FEF72DF90099FEF730F90499FEF73E
:101FC000D5F8074631460198FEF728F980462146A4
:101FD0000298FEF723F9814639465046FEF71EF96E
:101FE0004946FEF7C3F84146FEF712F90099FEF79D
:101FF00015F92946FEF7BAF8054650460199FEF74D
:102000000DF9804621462846FEF708F981463146FB
:102010003846FEF703F94946FEF7FAF84146FEF75F
:10202000A5F80099FEF7FAF80299FEF79FF88046A6
:1020300001465046FEF7F2F8814631462846FEF743
:10204000EDF8064621463846FEF7E8F83146FEF739
:102050008DF84946FEF7DCF80099FEF7DFF80199A4
:10206000FEF784F804460146FEF7D8F8814641465B
:102070000846FEF7D3F8064629460846FEF7CEF88E
:10208000824639460846FEF7C9F85146FEF76EF813
:102090003146FEF76BF84946FEF768F801F0FAFBA7
:1020A000064601463846FEF7B9F80B4F3146386010
:1020B0002846FEF7B3F8786031464046FEF7AEF8A2
:1020C000B86031462046FEF7A9F8F86015B0BDE8C3
:1020D000F08F00000AD7A33B3C00002048010020FD
:1020E0002DE9FC4101F0FCFB01F02EFC00F042F870
:1020F0001B48D0E90412CDE900120FC8FFF74AFED1
:102100001848174F1749D0E90025D0E902460C3F7F
:102110003C393868486101211046FEF7EFF8214646
:10212000FEF77CF804464FF040412846FEF776F86B
:102130003146FEF773F82146FEF718F8FEF7D5FA98
:1021400001F0C8F90022084BFEF78BF9074A084B4B
:10215000FEF7F9F9FEF7DCFA3860BDE8FC81000013
:10216000480100203C000020008066404AD8124D03
:10217000FB2109402DE9F05F604CE068FEF7B5FAFD
:10218000DFF87C814FF0663632464346FEF769F948
:1021900005465C480F46B0F90600FEF768FA4FF0B6
:1021A000333B5A46584BFEF75CF96FF00B094A4631
:1021B000FEF738FA2A463B46FEF7ACF8FEF7A8FAD7
:1021C000E0602069FEF791FA32464346FEF749F98E
:1021D00005464C480F46B0F90800FEF748FA5A4643
:1021E000494BFEF73EF94A46FEF71CFA2A463B46A3
:1021F000FEF790F8FEF78CFA20616069FEF775FA39
:1022000032464346FEF72DF906463E480D46B0F9E4
:102210000A00FEF72CFA5A463B4BFEF722F94A46D3
:10222000FEF700FA32462B46FEF774F8FEF770FA16
:1022300060613448B0F90000FEF70BFA04F11805AC
:102240002968FDF7E5FFFEF750FA5A462E4BFEF7D8
:1022500008F9DFF8B890DFF8B8A04A465346FEF711
:1022600000F92C4E00223346FEF76DF9DFF8A88006
:102270004FF0C0473A464346FEF765F9FEF748FA85
:1022800020602048B0F90200FEF7E3F96968FDF725
:10229000BFFFFEF72AFA5A461B4BFEF7E2F84A4602
:1022A0005346FEF7DEF800223346FEF74CF93A4675
:1022B0004346FEF748F9FEF72BFA60601148B0F983
:1022C0000400FEF7C6F9A968FDF7A2FFFEF70DFAB4
:1022D0005A460D4BFEF7C5F84A465346FEF7C1F87D
:1022E00000223346FEF72FF93A464346FEF72BF914
:1022F000FEF70EFAA060BDE8F09F00004801002044
:102300006666E63F000000203333D33F4AD8124DC3
:10231000FB21094000806640666630402DE9F047A9
:1023200086B0002436480094019402940394816995
:1023300041F010018161816901F01001049181690E
:1023400041F020018161816901F0200104918169DE
:1023500041F004018161816901F004010491816906
:1023600041F0080181618069DFF8988000F0080081
:102370004FF400550490002229464046FEF7AFFC7A
:10238000DFF88490002260214846FEF7A8FCDFF8C1
:102390007CA04FF20107002239465046FEF79FFC11
:1023A0000095022601250396CDE901546946404671
:1023B000FEF7B0FB4FF44040CDE9000469464046CB
:1023C0000294FEF7A7FB6020CDE90005CDE90246A7
:1023D00069464846FEF79EFB8020CDE90004694629
:1023E00048460294FEF796FB00970396CDE9015408
:1023F00069465046FEF78EFB06B0BDE8F087000048
:10240000001002400010014000080140000C014093
:102410000D4810B50B4901600C49416000214FF493
:1024200080428160C0E9031241618161C161016242
:10243000FEF760FC002803D0BDE81040FEF755BB56
:1024400010BD000000540040C4020020A08601001E
:1024500010B58CB024216846FDF77DFE0024164897
:10246000099414490A94C0E900144FF6FF71C0E9B9
:1024700002410461446184610320CDE9000401202C
:10248000CDE902040494CDE90540079469460A4861
:102490000894FFF7D5F808B1FEF727FB099409A9BE
:1024A00005480A94FFF752F8002801D0FEF71DFBFB
:1024B0000CB010BD002C01401803002030B589B0CD
:1024C000002407941C2168460894FDF744FE1C482C
:1024D0004FF08041802501604721C0E9011440F29E
:1024E000E7318561C0E90314FFF7FAFA08B1FEF796
:1024F000FCFA2020CDE9070507A91148FFF726F8C7
:1025000008B1FEF7F2FA602000904FF4FA70CDE9BE
:102510000104082269460A480494FFF77EFA08B1CC
:10252000FEF7E3FA0C2269460548FFF776FA08B190
:10253000FEF7DBFA0248FFF74BFA09B030BD0000A6
:102540006003002010B58CB024216846FDF703FE1F
:1025500000241648099414490A94C0E900144FF65F
:10256000FF71C0E90241046184610320CDE90004E8
:102570000120CDE902040494CDE9054007946946A1
:102580000A480894FFF75CF808B1FEF7AEFA099420
:1025900009A906480A94FEF7D9FF002801D0FEF7E2
:1025A000A4FA0CB010BD000000040040A8030020F5
:1025B0000C4810B50A4901604FF4E1314160002137
:1025C00081600C22C160C0E904128161C161FFF722
:1025D00015FB002803D0BDE81040FEF786BA10BDF9
:1025E00000380140F0030020FEE7FEE72DE9F04748
:1025F00004460D46D4E90001FDF70AFE214E81464E
:10260000494656F82500FDF7B1FD07461E4880787B
:10261000FEF728F83946FDF701FE46F8250006F1D9
:102620001C08074658F825104846FDF7F1FDA1693A
:10263000FDF7F4FD064639466069FDF7EFFD0746F4
:1026400049462069FDF7EAFD3946FDF78FFD314621
:10265000FDF78CFD606248F82590D4E90901FEF78A
:102660007DF801D2A06A6062A06A616A80F00040D1
:10267000FEF774F803D2A06A80F000406062BDE803
:10268000F0870000DC0100204C0000201C481B49A2
:102690001F4BC1631B4941641B4901640021016553
:1026A000C164016340F82C1F184AC3618160194B53
:1026B000C363194B436401654FF08143C1640364F4
:1026C0000163C0E90A21154B83644163930183666A
:1026D000134B0367C167134B8167C366C165C0E9CC
:1026E0001521C0F8802001660F4941670F484FF45B
:1026F000FA6181604FF41671C16070470000F0C14B
:1027000014020020000020C1000080BF0000FA4435
:102710000000A0410000B0410000F04100000C4268
:10272000CDCCCC3EE3A51B3D000096434C000020E1
:102730007047704770B50D4C00252088401C80B252
:102740002080052804D12580FFF7CAFC00F0FAFF9D
:102750006088401C80B26080052802D1658001F04D
:102760004DF8BDE87040FEF7C7BB00002001002017
:1027700030B58FB028216846FDF7EDFC14210AA87A
:10278000FDF7E9FC01210804CDE9001000240294C2
:1027900002250491CDE907504FF4E01009906846F6
:1027A000FEF72EFD08B172B6FEE70F20CDE90A054F
:1027B0004FF48060CDE90C4002210AA80E94FEF788
:1027C00033FC002801D072B6FEE70FB030BD704771
:1027D0000148FFF749B80000180300200148FFF73F
:1027E00043B80000180300200148FFF73DB800007F
:1027F000180300200148FFF737B800001803002035
:102800000148FFF731B80000A803002070B5026846
:10281000134B144C4FF08046984203D0B04201D085
:10282000A04203D122F070054A682A43984203D09F
:10283000B04201D0A04203D122F44074CA682243BE
:102840004C6922F08002224302608A68C2620A68F0
:102850008262984201D1096901630121416170BD21
:10286000002C01400004004010B501F01F030121BD
:10287000046A99408C430462016A9A4011430162E0
:1028800010BD000030B5026A22F001020262026A45
:102890004368846924F073050C682C4322F0020518
:1028A0008A682A430A4DA8420BD122F00805CA685B
:1028B00023F440732A434D6922F004021D438B69BF
:1028C0002B434360846149684163026230BD00006C
:1028D000002C014030B5026A22F010020262026A46
:1028E000436884690D6824F4E64444EA05248D684D
:1028F00022F0200242EA05120B4DA8420ED1CD680B
:1029000022F0800242EA05124D6923F4406343EA53
:1029100085038D6922F0400243EA850343608461A8
:1029200049688163026230BD002C014030B5026A03
:1029300022F480720262036A4268C46923F400735D
:1029400024F073050C682C438D6843EA05230C4D75
:10295000A8420ED1CD6823F4006343EA05234D69F4
:1029600022F4405242EA05128D6923F4806342EA60
:1029700005124260C4614968C163036230BD000052
:10298000002C014030B5026A22F480520262046ACF
:102990004268C3690D6823F4E64343EA05238D6862
:1029A00024F4005444EA0534064DA84204D14D698C
:1029B00022F4804242EA85124260C36149680164A0
:1029C000046230BD002C014070B504460068016906
:1029D000E26821F44051114301612169A068084374
:1029E000616908432168CA6841F20C639A43024353
:1029F000CA6020684169A26921F4407111434161B4
:102A00001E492068884202D1FEF7B4FB01E0FEF7C0
:102A1000A1FB00EBC00101EB0012606864218000A3
:102A2000B2FBF0F3B3FBF1F36FF018067343B2FBA4
:102A3000F0F5B2FBF0F605EB8305322303EB051549
:102A4000B5FBF1F5B6FBF1F605F0F00505EB061563
:102A5000B2FBF0F6B2FBF0F0B0FBF1F06FF0180251
:102A6000504306EB800003EB0010B0FBF1F021684F
:102A700000F00F002844886070BD0000003801405D
:102A80002DE9F041984617460E460446069D1DE086
:102A9000681C1BD02DB1FEF727F9A0EB0800A84257
:102AA00014D92068C16821F4D071C16020684169DF
:102AB00021F001014161202084F83D0084F83E00AE
:102AC000002084F83C000320BDE8F0812068006805
:102AD00036EA000004D00020B842D9D00020F3E745
:102AE0000120F9E7FEE700000FB4054B10B503A97C
:102AF000044A029800F06AF910BC5DF814FB00006B
:102B0000C938000834010020490050EAC12018BF2C
:102B100004204A0D18BF40F0010040F2FF72B2EBF2
:102B2000515F08BF40F00200012808BF0520704730
:102B30000907090E002804DB00F1E02080F80014EA
:102B4000704700F00F0000F1E02080F8141D70477E
:102B50002DE9F0414F1E00EBC7010446D1E9000109
:102B600015461E4637F006020DD02A463346FDF7BD
:102B700078FC7F1E04EBC703D3E90023FDF7CAFBF3
:102B800037F00602F1D1022F25D0042F13D0062FE3
:102B900018BFBDE8F0812A463346FDF762FCD4E950
:102BA0000A23FDF7B7FB2A463346FDF75AFCD4E962
:102BB0000823FDF7AFFB2A463346FDF752FCD4E964
:102BC0000623FDF7A7FB2A463346FDF74AFCD4E966
:102BD0000423FDF79FFB2A463346FDF742FCD4E968
:102BE0000223FDF797FB2A463346FDF73AFCD4E96A
:102BF0000023BDE8F041FDF78DBB0122FDF712BDBA
:102C00000022134610461146FDF79DBC024A0020E3
:102C10001107FDF707BD000001FDFFFF02E008C836
:102C2000121F08C1002AFAD170477047002001E046
:102C300001C1121F002AFBD1704700000149086042
:102C400070470000380100202DE9FF5F82B00021AD
:102C5000DDE90430020DDDF840B0034318D044F63E
:102C60001050A2F2FF3242431514119801281FD0D0
:102C7000A5EB0B00401C5FEA000A4FF000064E4F28
:102C8000DFF83891B046504615D5CAF1000413E07C
:102C9000119801244AA3012801D16FEA0B0102987F
:102CA000119AC0E90031C0E9024206B0BDE8F09FC8
:102CB000CBF10000DFE704460021404A491842EB0F
:102CC0000450CDE9001012E0E00707D032463B4641
:102CD00040464946FDF7C5FB8046894632463B469D
:102CE00010461946FDF7BDFB06460F466410002C42
:102CF000EAD1DDE90401DDE90023BAF1000F06DACB
:102D0000FDF7AFFB42464B46FDF7ABFB05E0FDF799
:102D10001AFC42464B46FDF716FC04460E460022BE
:102D2000284BFDF78BFE03D84FF0FF30014607E03C
:102D30000022254B20463146FDF7ECFAFDF765FEF3
:102D4000102409E0002C0ADB0A220023FDF726FDEF
:102D5000039B30321A55641E50EA0102F2D1641C02
:102D6000039AC4F111031444119A012A03D00122D9
:102D700008430DD10AE0084304D000204FF0110BA6
:102D8000119072E7A3EB0B056D1E0DE05B4504DDB2
:102D90004FF0000205F1010504E003DA4FF00002F4
:102DA000A5F10105002AECD002981199C0E9023181
:102DB000C0E9004579E70000000014400000F03F42
:102DC000300000000000F0430000E03F2DE9FF4F1D
:102DD00095B09A46884606460025EEE1252877D12B
:102DE00000242746F94A0121039400E0044316F821
:102DF000013F203B01FA03F01042F7D130782A2836
:102E000011D06FF02F033078A0F13002092A16D8C4
:102E1000039A44F0020402EB820203EB42021044E4
:102E2000761C0390EFE758F8042B0392002A03DA8C
:102E3000504244F40054039044F00204761C30786D
:102E40002E2816D116F8010F44F004042A280DD0BC
:102E50006FF02F023078A0F13003092B09D807EB6F
:102E6000870302EB4303C718761CF3E758F8047B8B
:102E7000761C30786C280FD006DC4C2817D06828D8
:102E80000DD06A2814D104E0742810D07A280FD10C
:102E90000DE044F400140AE044F4801401E044F42A
:102EA00040147278824202D104F58014761C761C9C
:102EB000307866280BD013DC582877D009DC00283E
:102EC00075D04528F6D04628F4D047281AD193E18A
:102ED00018E0632835D0642879D0652812D18BE1B9
:102EE000702873D008DC6728F1D069286FD06E286D
:102EF0000DD06F2806D1ACE073282CD0752874D083
:102F0000782853D05246179990476D1C54E1C4F36A
:102F10000250022809D003280DD0D8F80010042848
:102F20000DD00D6008F1040846E1D8F80010EA174A
:102F3000C1E90052F6E7D8F800100D80F2E70D70F5
:102F4000F0E718F8041B8DF8001000208DF8010040
:102F5000EB46012003E058F804BB4FF0FF30610757
:102F60004FF0000102D40DE009F101018946B94298
:102F70000FDA8145F8DB1BF809100029F4D108E0CD
:102F800009F1010189468142FADB1BF80910002989
:102F9000F6D103985346A0EB090721463846179A05
:102FA00000F080FA284400EB090507E044E008E15E
:102FB0000DE01BF8010B524617999047B9F1010932
:102FC000F7D2534621463846179AF2E039E00A21F3
:102FD000C4F302524FF0000B0091022A06D058F8B9
:102FE000040BC117032A09D00AE023E008F1070007
:102FF00020F00702F2E80201904605E000B2C11796
:10300000042A01D140B2C117002906DA0A4600217C
:10301000404261EB02012D2202E0220504D52B2261
:103020008DF80420012203E0E20701D02022F7E717
:10303000914657E00A2100E010214FF0000B00916B
:103040000BE010214FF0000B44F00404082700911E
:1030500003E008204FF0000B0090C4F30252022A54
:1030600005D058F8040B0021032A08D008E008F125
:10307000070020F00702F2E80201904603E080B268
:10308000042A00D1C0B24FF0000922072AD53278B5
:10309000702A07D0DDF800C08CF0100C5CEA0B0C35
:1030A00005D00EE040228DF80420012208E050EA0D
:1030B000010306D030238DF804308DF8052002225C
:1030C0009146009B83F0080353EA0B030AD150EAB0
:1030D000010201D1620705D530228DF804204FF09E
:1030E00001097F1E3278582A04D039A20C920CAA0A
:1030F00002920BE03BA2F9E75B46009AFDF74EFB1C
:103100000C9B9B5C029A521E0292137050EA0102C1
:10311000F2D1029804A9081A00F1200B600702D529
:1031200024F4803400E001275F4502DDA7EB0B00AB
:1031300000E0002000EB0B01009003984944401A86
:103140000390E00306D453462146179A039800F0F3
:10315000A9F90544002706E001A85246C05D179969
:1031600090476D1C7F1C4F45F6DBE0030CD55346A2
:103170002146179A039800F095F9054404E03020A1
:103180005246179990476D1C0099481E00900029DF
:10319000F5DC08E00298029952460078491C029139
:1031A000179990476D1CBBF10001ABF1010BF1DCED
:1031B0005BE100F065F90544761C307800287FF467
:1031C0000DAE19B02846BDE8F08F000009280100B7
:1031D000303132333435363738396162636465668D
:1031E000000000003031323334353637383941424F
:1031F0004344454600000000600700D4062708F15C
:10320000070020F00700F0E80223804603F0004C9E
:103210005FEA0C0001D097A009E0200501D596A037
:1032200005E0E00701D095A001E0AFF24C0013905B
:10323000307823F0004365280CD006DC452809D0FF
:1032400046281DD047287FD13BE0662818D0672844
:103250007AD136E00021112F01DB112000E0781C2B
:10326000CDE9000104A90CA8FFF7EEFCDDE90D0192
:103270000C9A4FF0000B07F10109109200914EE0FB
:103280004FF000400097CDE9011004A90CA8FFF70A
:10329000DBFCDDE90D020C9B0F994FF0000B914612
:1032A0001093009211B9791C00EB0109B7EB0900EA
:1032B00003D4C0F1FF3B07F10109A9EB070001901E
:1032C00042E0012F00DA01270021112F01DD11203A
:1032D00000E03846CDE9000104A90CA8FFF7B4FCD2
:1032E000DDE90D010C9A00914FF0000BB9461092E8
:1032F00021070FD4009A4A4503DA914601E0A9F16B
:103300000109B9F1010F05DD109AA9F10101515C24
:103310003029F4D0B84202DA10F1040F03DA0121A7
:10332000CDE9011010E0002803DC8344A9EB000183
:1033300002E0411C494500DD8946A0EB0B00401C22
:1033400001904FF000400290200705D401984845B5
:1033500002DB4FF0FF30019000208DF84B00029807
:103360000DF14B07B0F1004F25D002200C902B201F
:103370000D90029800280CDA404202902D200D900A
:1033800007E00A210298FDF7F3F93031029007F8BF
:10339000011D0C99481E0C900029F2DC02980028AF
:1033A000EFD1791E0D980870307800F0200040F0C1
:1033B000450007F8020D11A8C01BC01D029013980C
:1033C000007800B1012000EB0901019801EBE071E8
:1033D000029801440398401A401E0390E00306D46B
:1033E00053462146179A039800F05CF80544139859
:1033F000007818B15246179990476D1CE00323D509
:1034000053462146179A039800F04CF805441BE0F8
:10341000BBF1000F07DB0098584504DD10981799A1
:1034200010F80B0001E017993020524690470198A0
:103430000BF1010B401E05F10105019004D12E2076
:103440005246179990476D1CB9F10001A9F1010985
:10345000DEDC05E017F8010B5246179990476D1C0A
:103460000299481E02900029F4DC53462146179A1F
:1034700003989EE62D0000002B00000020000000B5
:103480002DE9F041044600251E461746880404D461
:1034900005E039462020B0476D1C641EF9D528464A
:1034A000BDE8F0812DE9F041044600251E46904616
:1034B000C80301D5302700E02027880404D505E0A3
:1034C00041463846B0476D1C641EF9D52846BDE814
:1034D000F08100002DE9F04D8D4F21F0004A86B0BB
:1034E00005460C46BA452ADBAAEB070028430AD05A
:1034F0008848824501DC1AD1CDB106B02846BDE826
:10350000F04DFFF77ABB844A844B2846FCF7A9FFAD
:1035100007460E46824A834B28462146FCF7A1FF08
:1035200006B03A463346BDE8F04DFCF7F3BE012045
:10353000FFF784FB06B0BDE8F04DFFF761BB7A48AA
:10354000824542DABAF1795F0BDA2846FFF7DCFAF6
:10355000042808BFFFF75AFB284606B02146BDE8FD
:10356000F08D2A460B461046FCF77BFF8346024649
:103570006E480E460B4606217844FFF7E9FA5A4694
:103580003346FCF76EFF804669488A465A46334602
:1035900004217844FFF7DCFA5A463346FCF761FF12
:1035A00000223B46FCF7B6FE02460B46404651461B
:1035B000FCF7C9FF2A462346FCF753FF06B02A460C
:1035C0002346BDE8F04DFCF7A5BE284624F0004197
:1035D00000223D463B46FCF741FF4FF0FF32FDF72E
:1035E00021F80646024653480F460B46062178440A
:1035F000FFF7AEFA32463B46FCF733FFCDE9000158
:103600004D4832463B4604217844FFF7A1FA324642
:103610003B46FCF726FF00222B46FCF77BFE834649
:1036200002913046394600F017FC804643480D466B
:10363000504517DCDDE900015A46029BFCF783FF89
:1036400042462B46FCF70DFF42462B46FCF762FE36
:103650000122FCF7E7FF304A304BFCF7FCFE304A12
:10366000304B4CE04FF0000A52460B464046FCF708
:1036700051FECDE9031052462B4610461946FCF781
:10368000F0FE32463B46FCF7E9FEDDE90332FCF78B
:103690005AFF06460F46DDE900015A46029BFCF739
:1036A00052FF83460091012230463946FCF7BAFFAB
:1036B000194A1A4BFCF7D2FE06460F460122404635
:1036C0002946FCF7AFFF5A46009BFCF7CAFE32467C
:1036D0003B46FCF7C0FE06460F46012250462946EF
:1036E000FCF7A0FF0E4DDFF858802A464346FCF752
:1036F000B5FE32463B46FCF7B1FE2A464346FCF790
:10370000ADFE002CD8BF81F0004106B0BDE8F08DC1
:103710000000F03F0000F07F075C143326A6913CC8
:10372000182D4454FB21F93F0000E03F44090000FC
:103730005A090000CE080000E40800003333EF3FD0
:10374000FB21E93F10B5002000F038F800F004F844
:10375000BDE8104000F00EB804480021816504491E
:103760000968C16502215830FEF740BF14020020ED
:103770003C01002070B50F4C0F480025C4F8845060
:10378000B0F9000050340930FCF763FFA063032157
:1037900004F13400FEF72AFF2560E16AA06DFCF712
:1037A000E5FC2946FCF7E2FCBDE87040014600F06C
:1037B000BDBA0000140200200200002070B50D4CBC
:1037C0000B4DE0620C480068FCF743FF20630121C9
:1037D00004F12C00FEF70AFF206D2968FCF7B4FF06
:1037E00001D0206D01E000202065286070BD000040
:1037F00070000020140200205C0000202DE9F0473A
:103800002048DFF87C900068476A1F4C4FF4FA614B
:1038100041621E480068466A4162A068FCF719FFD1
:10382000DFF86C8001464046FCF7F8FC0546384658
:10383000FCF70FFF4946FCF7F1FC2946FCF796FC24
:10384000FCF726FF0546E068FCF703FF014640460B
:10385000FCF7E4FC07463046FCF7FBFE4946FCF764
:10386000DDFC3946FCF782FCFCF712FFC4E902508C
:10387000A0F2CD70A5F2CD75C4E90050BDE8F08787
:103880009A99993E180300205C000020A8030020AC
:103890003333333F10B504464FF0FF31FCF72EFDB4
:1038A0000849A1EB64042146FCF7B8FC2146FCF76B
:1038B000B5FC4FF07F51FCF7AEFC2146BDE810404F
:1038C000FCF7ACBCDF59375F13B54FF6FF7301222D
:1038D00069460248FEF704FA00981CBDF003002078
:1038E0001CB5062269463B2000F006F9BDF8000031
:1038F000114C40BA00B2E080BDF8021049BA2181F3
:10390000BDF8041049BA6181FCF7A3FE01460B48DB
:1039100000F054F9B4F90800FCF79BFE0146084892
:1039200000F04CF9B4F90A00FCF793FE0146054893
:1039300000F044F91CBD000000000020BC00002085
:10394000D4000020EC0000201CB50622694643206C
:1039500000F0D2F8BDF80000184C40BA00B2208048
:10396000BDF8021049BA6180BDF8041049BAA180BF
:10397000FCF76FFE0146124800F020F9B4F902008E
:10398000FCF767FE01460F4800F018F9B4F904008F
:10399000FCF75FFE01460C4800F010F9084880680B
:1039A000FCF776FE208007488068FCF771FE608097
:1039B00005488068FCF76CFEA0801CBD000000205C
:1039C000740000208C000020A400002070B51D4C65
:1039D00000251D4E25606560C4F80850FFF780FF84
:1039E000FFF7B2FFB6F90000FCF733FE2168FCF7E1
:1039F000BDFB2060B6F90200FCF72BFE6168FCF706
:103A0000B5FB6060B6F90400FCF723FEA168FCF783
:103A1000ADFBA0600220FDF76BF86D1C642DDDDBB3
:103A20000A4D20682946FCF72BFC20602946606877
:103A3000FCF726FC60602946A068FCF721FCA0602A
:103A400070BD000060010020000000200000C8429E
:103A500008B500F02CF880216B2000F06FF80220F0
:103A6000FDF746F869466B2000F02CF89DF8000041
:103A70004128F7D101216B2000F060F800216C2073
:103A800000F05CF801211A2000F058F807211920F5
:103A900000F054F818211B2000F050F810211C20D1
:103AA00000F04CF803211D2000F048F808BD08B5CF
:103AB0006946752000F006F89DF800001228F7D13D
:103AC00008BD000070B50B4E0C46054600220121D2
:103AD0003046FDF704F945F0800000F047F800207B
:103AE00000F044F820703046BDE8704001221146D5
:103AF000FDF7F5B8000C01402DE9F0410E4F1546D9
:103B00000E460446002201213846FDF7E8F844F04D
:103B1000800000F02BF8002405E0002000F026F8DB
:103B20003055641CA4B2AC42F7D33846BDE8F0412E
:103B300001221146FDF7D3B8000C014070B50A4CC4
:103B40000E460546002201212046FDF7C8F828460A
:103B500000F00CF8304600F009F82046BDE870404F
:103B600001221146FDF7BBB8000C01402DE9F041E0
:103B7000114E0546002400BF05F08002402130466A
:103B8000FDF7ADF86806070E002220213046FDF74C
:103B9000A6F880213046FDF79DF840EA070501228E
:103BA00020213046FDF79BF8641CE4B2082CE3D3D7
:103BB0002846BDE8F0810000000801402DE9F041F1
:103BC0008846044601690068FCF7D0FA6060074641
:103BD0006169FCF7CBFA01463846FCF751FBE0601F
:103BE000A568064629464046FCF712FB3146FCF71D
:103BF00015FB2946FCF7BAFA0546A06031464FF09E
:103C00007E50FCF705FB3946FCF708FB2060284690
:103C1000BDE8F0818EB0FDF777F9FEF7A9FDFEF75C
:103C20007DFBFEF7C5FCFEF7F3FBFEF711FCFEF78C
:103C300045FCFEF787FCFEF729FDFFF709FFFFF7BC
:103C4000C5FE2A48FDF7D4FC08212848FDF78AFF65
:103C5000264C6FF00800216808610C212046FDF712
:103C600081FF21686FF00C0008612046FDF79EFC83
:103C70003C211F48FDF7B0FD3C211E48FDF7ACFD7F
:103C80001D4C1E480068FCF730FDCDE909101C48AA
:103C90000068FCF72AFD82461A488B460068FCF74C
:103CA00024FD80468946D4F8A800FCF71EFD064690
:103CB0000F46E06FFCF719FD00900D46206DFCF7F4
:103CC00014FD0B4609990B9106A9024681E8000FE5
:103CD0000D48B0F90000CDE903700C48CDE901565C
:103CE00001680BA0FEF700FFCBE700006003002097
:103CF00018030020A8030020140200200401002063
:103D00003C0100206C000020020000205C0000202C
:103D100025642C25662C25662C25662C25642C25EF
:103D2000662C25662C25660A000000002DE9F05F50
:103D300004460D4643484449844201DD044602E0FE
:103D40008C4200D90C46854201DD054602E08D42D9
:103D500000D90D464FF400083C4E3D4F44450EDB64
:103D6000002271143046FCF7BAFF012211033046DD
:103D7000FCF7B5FF2046FCF7A4FC3968C863DFF800
:103D8000D4904C4511D3012284F0004451033046B5
:103D9000FCF7A5FF00224FF480513046FCF79FFF4F
:103DA0002046FCF78EFC3968C8634FF4804A4FF414
:103DB000004B45450EDB002251463046FCF78FFF95
:103DC000012259463046FCF78AFF2846FCF779FC69
:103DD000396808644D4510D385F0004501225146ED
:103DE0003046FCF77CFF002259463046FCF777FF4F
:103DF0002846FCF766FC3968086414F0FF4F4FF062
:103E000000040DD100224FF400513046FCF767FF4B
:103E100000224FF480513046FCF761FF3868C463DC
:103E200015F0FF4F0BD1002251463046FCF757FFEB
:103E3000002259463046FCF752FF38680464BDE85A
:103E4000F09F000000007A4400007AC4000C01409A
:103E500060030020000080802DE9F04106460F46F7
:103E6000FCF782FD041E0D4618BF0120284320F0F8
:103E70000040C0F17F6000F1E040C00F0ED0301C68
:103E800018BF0120384320F00040C0F17F6000F1EE
:103E9000E040C00F04BF0120FEF7D0FE20462946B7
:103EA000BDE8F081000000000000000001020304F2
:103EB00006070809000000000102030400000000DA
:103EC000555555555555C53F7D6FEB0312D6D4BF9B
:103ED0005544880E55C1C93F3B8F68B52882A4BFA1
:103EE00088B20175E0EF493F09F7FD0DE13D023F62
:103EF0004B2D8A1C273A03C0C88A599CE52A0040EA
:103F000059018D1B6C06E6BF82922EB1C5B8B33F36
:103F1000303F0008000000203C010000900A00082B
:103F2000603F00083C010020FC0600002C2C00082B
:103F3000E1072A20410AD7233CC3803F1A0101012F
:103F400024BC0AD7A36425CDCCCC3E0B76C03F1849
:103F500039BC59040114291882109324F40000007C
:04000005080000ED02
:00000001FF
