:020000040800F2
:10000000600B00200501000887280008931D0008E8
:1000100085280008B9090008C12E0008000000006A
:10002000000000000000000000000000032B00089A
:10003000BB09000800000000012B0008052B000888
:100040001F0100081F0100081F0100081F01000810
:100050001F0100081F0100081F0100081F01000800
:100060001F0100081F0100081F0100081F010008F0
:100070001F0100081F0100081F0100081F010008E0
:100080001F0100081F0100081F0100081F010008D0
:100090001F0100081F0100081F0100081F010008C0
:1000A000AD2B0008D12B0008C52B0008B92B000888
:1000B0001F010008DD2B0008000000001F010008E0
:1000C0001F01000800000000000000001F010008E0
:1000D000000000001F0100081F01000800000000D0
:1000E0001F0100081F0100081F010008DFF810D0E1
:1000F00000F050FC0048004799380008AFF300803A
:10010000600B00200648804706480047FEE7FEE7F0
:10011000FEE7FEE7FEE7FEE7FEE7FEE7FEE7FEE7B7
:10012000AB2B0008ED000008202A04DB203A21FA5E
:1001300002F00021704721FA02F3D040C2F1200200
:100140009140084319467047D2B201E000F8012BF4
:10015000491EFBD270470022F6E710B513460A4647
:1001600004461946FFF7F0FF204610BDF0B480EAC0
:100170000102D40F4200B2EB410F02D20246084600
:1001800011464A0042D0C30DDDB2C1F3C752AD1AC9
:10019000202D35DAC1F3160141F4000204B15242B8
:1001A000C5F1200602FA06F12A411044B3EBD05FF4
:1001B00023D0C4B1012DA0EBC35009DCF0BC4FF03B
:1001C000004202EAC352DBB200F5000000F006BBB9
:1001D000400000F1807000EBC350A0F1807040EA55
:1001E000D170490009E0490841EAC071A0EBC35051
:1001F00000F50000400800EBC350F0BC00F0E5BA89
:100200006142012202EB4101001BF6E7F0BC70479E
:1002100081F00041AAE780F00040A7E780EA0102F0
:1002200010B502F00043400022D04A001FD0010E5A
:1002300001EB1261C0F35600C2F3560240F4000015
:1002400042F40002A0FB022000047F39140400D015
:10025000401C50EA124001D44000491EC2B20C06B4
:1002600004EBD010401C4008802A02D003E000209C
:1002700010BD20F00100002900DA0020184310BD55
:1002800030B480EA010202F0004530F0004221F073
:10029000004013D090B1C30DD40DC2F31601C0F3CA
:1002A0001600E41A41F4000140F400027D3491424A
:1002B00001D3641C00E04900002C02DA30BC0020AD
:1002C00070474FF400000023914201D3891A034381
:1002D00040084FEA4101F7D151B1914202D14FF0AC
:1002E000004105E002D24FF0010101E06FF0010191
:1002F00003EBC450284430BC00F067BA420005D07C
:10030000C0F3C7525242914201DC0020704700EB1B
:10031000C15070472DE9FE4F804681EA0300C00FAF
:100320000C46009021F0004123F00045B8EB02009C
:10033000A94105D24046214690461C460B4602463E
:1003400023F00040104347D0270DC7F30A00C3F342
:100350000A510290401A019040286BDAC3F313004F
:1003600040F4801B0098924620B10023D2EB030A90
:1003700063EB0B0B01985946C0F14002504600F068
:1003800003FA06460D4650465946019A00F00BFA0C
:1003900010EB08006141002487EA115284EAE773F8
:1003A0001A4340D0009A62B3019A012A4FEA0752D9
:1003B00015DC001B61EB02014FF0004202EA07521C
:1003C000CDE90042001C41F5801132462B4600F079
:1003D00042FA03B0BDE8F08F40462146F9E7001B22
:1003E00061EB0201001C41F5801300185B412018ED
:1003F000A2F5001747EB030140EAD570B6196D412D
:1004000011E06D084FEA360645EAC0754FEA07521B
:10041000001B61EB0201001C41F5801149084FEA05
:1004200030000019514132462B4603B0BDE8F04F71
:1004300000F002BA0098012240000023D0EB020233
:1004400063EBE073009821464FEAE074B8EB0000DC
:1004500061EB0401E9E783F000435BE781F00041D1
:1004600058E72DE9FE4F81EA030404F0004421F02F
:10047000004100944FF0000B23F0004350EA0104C8
:100480005ED052EA03045BD0C3F30A54C1F30A55A9
:100490002C44A4F2F3340194A0FB0254C1F31301E1
:1004A00041F48011C3F3130343F4801301FB0244AE
:1004B00000FB034E840A970A44EA815447EA8357B3
:1004C000A4FB076802958D0A05FB07854FEA932C6C
:1004D00004FB0C542705029D4FEA065847EA1637DD
:1004E000B5EB08056EEB070C870E920E47EA8117F5
:1004F00042EA8312A7FB0201B6EB0B0164EB000496
:100500002B0D43EA0C335E1844EB1C50DA4651467F
:10051000E7FB0201C5F313044FEA0B3343EA14531C
:100520004FEA0432019C43EA0603A4F10C0402944E
:10053000009CCDE900B400F08EF903B0BDE8F08F67
:1005400000200146F9E72DE9F04D81EA030404F0AB
:10055000004B21F0004514464FF0000A23F0004103
:1005600050EA050220D054EA01021DD0C5F30A5713
:100570000246C5F31303C1F31300C1F30A5640F456
:10058000801543F48013A7EB0608101BD64608F22B
:10059000FD3873EB050002D308F1010801E0921861
:1005A0005B41B8F1000F03DA00200146BDE8F08D91
:1005B00000204FF48011064684460EE0171B73EBB3
:1005C000050705D3121B63EB050306434CEA010C38
:1005D00049084FEA300092185B4150EA0107EDD11B
:1005E00052EA030012D082EA040083EA05010843BC
:1005F00005D0101BAB4106D20122002306E00022E9
:100600004FF0004302E06FF0010253101AEB0600B6
:100610004CEB085110EB0A0041EB0B01BDE8F04D2B
:1006200000F00AB970B521F0004303430CD0C1F3C8
:100630000A550024D5EB040564EB0403D617AD1A64
:10064000B34102DB0020014670BD201841EB02518E
:1006500070BDC10F80EAE0700844CA0796230021EC
:1006600000F0BCB896230022114600F0B7B80EB5D2
:10067000C10F80EAE0700844CA07002140F233430A
:100680008DE80E000A460B4600F0E5F803B000BD09
:1006900000F0004220F00040C10DC0F3160040F40D
:1006A00000007F2901DA00207047962903DCC1F1A0
:1006B0009601C84001E096398840002AF4D04042B3
:1006C000704720F00040C10DC0F3160040F4000058
:1006D0007F2901DA00207047962903DCC1F19601D9
:1006E000C840704796398840704700F0004230F0AB
:1006F00000400AD0C10D01F56071C0F3160042EA56
:100700000151C2084007114370470020014670475D
:1007100001F0004330B421F0004150EA010206D05C
:100720000A0DA2F56072C1F31301002A02DC30BC8D
:1007300000207047440F44EAC104C100E01830BCF7
:1007400000EBC25000F041B8002801DBC0F10040CE
:10075000002901DBC1F100418842704730B50B46EA
:10076000014600202022012409E021FA02F59D42E1
:1007700005D303FA02F5491B04FA02F52844151EB5
:10078000A2F10102F1DC30BD202A04DB203A00FA9C
:1007900002F1002070479140C2F1200320FA03F3D8
:1007A000194390407047202A06DBCB17203A41FAC4
:1007B00002F043EAE07306E041FA02F3D040C2F1EE
:1007C000200291400843194670470029A8BF70478E
:1007D000401C490008BF20F00100704710B4B0FA77
:1007E00080FC00FA0CF050EA010404BF10BC704712
:1007F00049B1CCF1200421FA04F411FA0CF118BF2C
:10080000012121430843A3EB0C01CB1D4FEA0061FA
:100810004FEA102042BF002010BC704700EBC350CD
:1008200010440029A4BF10BC7047401C490008BFF9
:1008300020F0010010BC704710B5141E73F10004C5
:1008400008DA401C41F1000192185B411A4301D1C2
:1008500020F0010010BD2DE9F04D92469B4611B1EC
:10086000B1FA81F202E0B0FA80F220329046FFF74E
:100870008BFF04460F4640EA0A0041EA0B0153464B
:100880005A46084313D0114653EA010019D0C8F163
:1008900040025046FFF748FC05460E465046594672
:1008A0004246FFF771FF084305D0012004E02046CF
:1008B0003946BDE8F08D0020054346EAE0762C433A
:1008C00037430A986305E40AA0EB08000022FD0AFA
:1008D00044EA47540A3002D500200146E9E7010501
:1008E00010196941DDE9084500196941BDE8F04D7D
:1008F000A2E72DE9F04D00231A461B1A8A4103DBBB
:1009000000200146BDE8F08DC1F30A52C1F3130186
:1009100041F480154FF0000BD10702D100186D4152
:10092000521E0027044640F2FF11384601EB620ACE
:100930003E468046024600204FF48011FFF7F4FB4C
:10094000C2197141BB1846EB0100B4EB030C75EB07
:10095000000C04D3E41A65EB000517460E46241973
:1009600008F101006D4180463428E3DDF91946EBBA
:100970000600091BA84103D24FF0FF32134601E0E5
:10098000002213461BEB070046EB0A51BDE8F04D71
:10099000FFF752BF064C074D06E0E06840F0010348
:1009A00094E8070098471034AC42F6D3FFF7A2FB57
:1009B000503B0008703B0008FEE7704772B6FEE748
:1009C00070B5044600F0F8F80546601C02D00448F3
:1009D0000078044400F0F0F8401BA042FAD370BD48
:1009E000980000202DE9F84FDFF89C91002409F1D0
:1009F000040A0AF1040B23460F270BF1040EBBE097
:100A00000125A5402A40AA4276D1DFF880C14E6870
:100A1000A6EB0C0866452BD00DDC032E34D005DC8C
:100A200036B3012E19D0022E2FD11BE0112E16D075
:100A3000122E2AD119E0B8F5881F19D006DCB8F5B6
:100A4000803F15D0B8F5801F1FD111E0B8F5001F09
:100A50000ED0B8F5041F18D10AE0CB6815E0CB68BA
:100A60001B1D12E0CB6808330FE0CB680C330CE0A1
:100A70008B682BB1012B4FF0080303D0456104E0D4
:100A8000042302E0056100E00023FF2A01D80646A6
:100A900001E000F104064FEA840501D9A5F1200523
:100AA000D6F8008007FA05FC28EA0C0803FA05F5D9
:100AB00048EA0508C6F800804D68ED005BD5344D66
:100AC000AE6946F00106AE61AD6924F0030605F09B
:100AD000010500952F4D06EB050CDCF80850A60724
:100AE000360F07FA06F825EA0805DFF8AC8040451E
:100AF00003D14FF0000810E03DE0DFF8A080404552
:100B000002D14FF0010808E0DFF89480404502D19F
:100B10004FF0020801E04FF0030808FA06F848EA2F
:100B20000508CCF808804D68D9F80060ED034D4603
:100B300001D5164300E096432E604D68DAF8006058
:100B4000AD03554601D5164300E096432E604D682F
:100B5000DBF80060ED025D4601D5164300E09643E8
:100B60002E604D68DEF80060AD02754601D5164373
:100B700000E096432E60641C0A6832FA04F57FF4A4
:100B80003FAFBDE8F88F00000004014000001110E5
:100B9000001002400000014000080140000C01402C
:100BA000001001408068084000D0012070470AB161
:100BB000016170470904FBE7014880687047000045
:100BC0009800002070B5040025D094F83D00002561
:100BD00020B984F83C50204600F050F9242084F8D5
:100BE0003D002068016821F0010101602068016872
:100BF00041F4004101602068016821F40041016076
:100C000000F0A8FA4D4A6168914201D84C4900E0D1
:100C10004C49884201D2012070BD4B492368B0FB8A
:100C2000F1F15E6826F03F060E435E606368934212
:100C300006D94FF4967359434FF47A73B1FBF3F12D
:100C40002368491C1E6A26F03F0631431962616819
:100C5000914210D84900401EB0FBF1F2521CC2F381
:100C60000B02042A01D2042022E0B0FBF1F0401C68
:100C7000C0F30B001CE0A268F2B301EBC10303EB6D
:100C80000116431EB3FBF6F35B1C43F480431B05C4
:100C900049D092B301EBC10202EB0111401EB0FB3F
:100CA000F1F0401CC0F30B0040F4804040F40040E1
:100CB0002168CA694CF6FF739A431043C861D4E9AE
:100CC000071001432068026822F0C002114301604E
:100CD000D4E9030101432068826848F2FF339A4354
:100CE00011438160D4E9050108432168CA6822F0F4
:100CF000FF021043C86001E00EE016E020680168C2
:100D000041F0010101602564202084F83D00256345
:100D100084F83E50002070BD01EB4106431EB3FB3A
:100D2000F6F35B1CB3E70120C2E701EB4101401E73
:100D3000B0FBF1F0401CC0F30B00B7E7A086010048
:100D400080841E0000093D0040420F002DE9FF4F46
:100D500083B09A46DDE9119793460446DDF840805A
:100D6000FFF72AFF054694F83D0020287FD119237C
:100D7000012240492046009501F09EF8002876D1D6
:100D800094F83C00012872D0012084F83C002068CF
:100D90000168C90703D1016841F0010101602068C1
:100DA000016821F400610160212084F83D004020A9
:100DB00084F83E0000262664C4F82480A4F82A9013
:100DC000608D20852C48E062CDE9007553465A4677
:100DD0002046049900F0F6FF70B930E02A46394603
:100DE000204601F0E8F858B1206C042804D12068AE
:100DF000016841F400710160012007B0BDE8F08F87
:100E0000606A216800780861606A401C6062218D18
:100E1000491E89B22185628D521E628522685369FE
:100E2000DB435B070BD469B100781061606A401C3A
:100E30006062208D401E2085608D401E6085208D63
:100E40000028CBD12A463946204601F00FF8002869
:100E5000CAD154F83D0B016841F4007101602020B3
:100E600004F81E09E67766770020C6E7FFE7022050
:100E7000C3E70000020010000000FFFF10B586B0BD
:100E80000021009101910291039100681649884266
:100E900028D1164C03200390A06940F00800A061FF
:100EA000A069694600F0080004904FF4407000907B
:100EB000122001900E48FFF795FD0E48416841F061
:100EC000E06141F002014160E16941F40011E1613A
:100ED000E16901F400110491416841F0E06141F0E1
:100EE0000201416006B010BD0054004000100240F5
:100EF000000C014000000140024881680278114462
:100F00008160704798000020074810B5016841F0E3
:100F100010010160032000F075F80F2000F006F8C2
:100F200000F024F8002010BD0020024070B50D4DE7
:100F300004464FF47A712878B1FBF0F00A49096849
:100F4000B1FBF0F000F0ECFA48B9102C07D2002207
:100F50002146501E00F036F800206C6070BD012064
:100F600070BD000098000020A40000200C4808B5C7
:100F7000816941F001018161816901F00101009104
:100F8000C16941F08051C161C06900F0805000909A
:100F90000448416821F0E06141F08061416008BD92
:100FA0000010024000000140002809DB00F01F0291
:100FB000012191404009800000F1E020C0F80011BB
:100FC00070470000F0B40E4B1B680C46C3F30223BD
:100FD000C3F10705042D00D90425191D072901D2E5
:100FE000002300E0DB1E012606FA05F1491E214020
:100FF00099409E40761E16403143F0BC01F0AABFD6
:101000000CED00E0064900F0070208684FF6FF0308
:10101000184040EA0220034A10430860704700006D
:101020000CED00E00000FA052DE9F0470F46050041
:1010300061D0434E306800F00700B84209D23068F2
:1010400020F0070038433060306800F00700B842F5
:1010500051D128683B4C810712D5400703D5606801
:1010600040F4E06060602878000703D5606840F4D1
:10107000605060606068A96820F0F000084360601C
:101080002878C00728D06868012810D02168022875
:1010900010D0890700292EDA616821F0030101438D
:1010A0006160FFF789FD804641F288390DE02168D3
:1010B0008903EFE78901EDE7FFF77EFDA0EB08016B
:1010C000494502D90320BDE8F0876068696800F0EF
:1010D0000C00B0EB810FEFD1306800F00700B84290
:1010E0000BD9306820F0070038433060306800F0DA
:1010F0000700B84201D00120E5E72878400705D570
:101100006068E96820F4E0600843606028780007C0
:1011100006D56068296920F4605040EAC10060602B
:1011200000F038F86168084AC1F30311515CC84007
:101130000649086006480068FFF7F8FE0020C2E78D
:101140000020024000100240E83A0008A4000020FD
:101150009C0000200448054900684968044AC1F31E
:101160000221515CC8407047A400002000100240DA
:10117000F83A00080448054900684968044AC1F380
:10118000C221515CC8407047A400002000100240FA
:10119000F83A000812A185B00FC98DE80F0014A01D
:1011A000144A006804905168134801F00C03042BA2
:1011B00010D0082B0ED1C1F38343C9031DF80300DF
:1011C0000AD5516804AAC1F34041515C0A4A504310
:1011D000B0FBF1F005B0704708494843FAE700005A
:1011E00002030405060708090A0B0C0D0E0F101068
:1011F000010200000010024000127A0000093D00C8
:101200002DE9F84F040070D02078C04DC00749D0B8
:101210006868C0F38100012807D06868C0F38100C6
:10122000022809D16868C00306D52868800339D52B
:1012300060680028E7D035E06068B0F5803F0BD0EB
:1012400010B1B0F5A02F11D0286820F480302860AC
:10125000286820F4802002E0286840F4803028606C
:10126000606890B1FFF7A8FC06460AE0286840F4E1
:1012700080202860F0E700BFFFF79EFC801B6428F9
:1012800073D828688003F7D50CE0FFF795FC064675
:1012900005E000BFFFF790FC801B6428F0D82868A9
:1012A0008003F7D420789A4E80074FF001094FF061
:1012B000000839D5686810F00C0F07D06868C0F3D3
:1012C0008100022809D16868C00306D42868800715
:1012D00014D52069012808D110E02069B0B1C6F802
:1012E0000090FFF769FC074605E00AE1FFF764FCA0
:1012F000C01B0228C4D828688007F7D52868616910
:1013000020F0F80040EAC10028600DE0C6F8008037
:10131000FFF752FC074604E0FFF74EFCC01B022813
:1013200023D828688007F7D4207800072CD579487F
:10133000A169D9B1C0F80090FFF73EFC074604E070
:10134000FFF73AFCC01B02280FD8686A8007F7D560
:1013500071484FF4FA510068B0FBF1F0009000BF03
:101360000098411E0091FAD20EE080E0C0F80080A3
:10137000FFF722FC074604E0FFF71EFCC01B022813
:1013800075D8686A8007F7D42078400760D5E86987
:101390000027C00008D4E86940F08050E861E8699F
:1013A000012700F0805000905C480168C90513D403
:1013B0000168834641F480710160FFF7FDFB8246BE
:1013C00006E000BFFFF7F8FBA0EB0A0064284ED848
:1013D000DBF80000C005F5D5E06801280AD008B1A7
:1013E000052813D0286A20F001002862286A20F01E
:1013F000040002E0286A40F001002862E06841F23F
:10140000883B98B1FFF7D8FB82460BE0286A40F092
:1014100004002862EEE700BFFFF7CEFBA0EB0A0155
:1014200059455AD8286A8007F6D50CE0FFF7C4FB67
:10143000824605E0FFF7C0FBA0EB0A0159454CD8F6
:10144000286A8007F6D41FB1E86920F08050E8616F
:10145000E06988B36968C1F38101022944D0022898
:10146000C6F8608004D0FFF7A7FB044638E034E0FC
:10147000FFF7A2FB074604E0FFF79EFBC01B022814
:101480002BD828688001F7D4206AB0F5803F05D1B9
:101490006868A16820F4003008436860D4E9080156
:1014A0000843696821F4741108436860C6F86090C5
:1014B000FFF782FB044606E025E000BFFFF77CFB58
:1014C000001B022809D828688001F7D51BE000BF5F
:1014D000FFF772FB001B022802D90320BDE8F88F3A
:1014E00028688001F4D40EE00128F7D06868226AE9
:1014F00000F48031914204D1616A00F47010884296
:1015000001D00120EAE70020E8E7000000100240D7
:101510000000424280044242A400002000700040CB
:1015200010B5401EB0F1807F01D3012010BD4FF0F7
:10153000E02460610F21601701F00CFD0020A06124
:1015400007202061002010BD7047704770B590F8EB
:101550003C20012A23D0012480F83C40022280F85C
:101560003D2003685A689D6822F070060A6832437D
:101570005A600C4B02689A4205D0B2F1804F02D0FB
:10158000094B9A4204D1496825F0800319439160C0
:1015900080F83D40002180F83C10084670BD0220D4
:1015A00070BD0000002C01400004004090F83D1088
:1015B000012901D001207047022180F83D10006808
:1015C0000949884205D0B0F1804F02D007498842CE
:1015D00004D1816801F00701062903D0016841F0B8
:1015E0000101016000207047002C01400004004010
:1015F00090F83D10012901D001207047022180F8A8
:101600003D100168CA6842F00102CA6000680A49D8
:10161000884205D0B0F1804F02D00849884204D1F9
:10162000816801F00701062903D0016841F001013A
:101630000160002070470000002C014000040040C1
:101640002DE9F0410D46040003D094F83D0018B197
:1016500008E00120BDE8F081002084F83C0020462D
:1016600000F040F8022084F83D002068816844F2D0
:10167000070291438160211D206801F0B5FA2268BC
:1016800090689169166A2B68AF69034340F2033092
:10169000814341EA0721A868EF6908434FF6FC41FE
:1016A0008843E96840EA0720014328692F6A00015E
:1016B00040EA0730084369686D6926F0220646EA69
:1016C0000515294393602268906154F8460B016226
:1016D000012004F81F09E0752076E0762077A075D8
:1016E0000020B7E700B585B000210091019102917B
:1016F0000391334A01683348914235D1816941F4FD
:1017000000618161816901F400610491816941F0A6
:10171000040181618069694600F0040004904FF47F
:10172000407000902848FFF75DF90022114618200C
:10173000FFF748FC1820FFF737FC0022114619205C
:10174000FFF740FC1920FFF72FFC002211461A205A
:10175000FFF738FC1A20FFF727FC002211461B2058
:10176000FFF730FC1B2027E0184A914226D1C169BF
:1017700041F00201C161C16901F002010491816976
:1017800041F0080181618069694600F00800049019
:10179000302000900E48FFF725F90E48416821F4EB
:1017A000406141F0E06141F4006141600022114676
:1017B0001D20FFF707FC1D20FFF7F6FB05B000BD5D
:1017C000002C0140001002400008014000040040CD
:1017D000000C01400000014070B590F83E600446E6
:1017E00090F83F5090F8423090F84320022021B109
:1017F00004290ED0012E1BD114E0012E18D1012B8B
:1018000016D184F83E0084F84200012200212068AD
:1018100020E0012D0CD1012A0AD184F83F0084F880
:10182000430014E0012D03D1012B01D1012A01D085
:10183000012070BD84F83E0084F83F0084F8420027
:1018400084F8430001220021206801F0FBF9012205
:101850000421206801F0F6F92068016841F00101D7
:101860000160002070BD704770B5044600680169D2
:101870004FF00005C943890715D4C168C9438907DA
:1018800011D4E91E0161012020772068806980075A
:10189000204602D0FFF7E7FF04E000F0BDF8204645
:1018A00000F05EF9257720680169C943490717D41C
:1018B000C168C943490713D46FF0040101610220D4
:1018C00020772068806910F4407F204602D0FFF71F
:1018D000CAFF04E000F0A0F8204600F041F92577A7
:1018E00020680169C943090716D4C168C9430907BB
:1018F00012D46FF008010161042020772068C069CC
:101900008007204602D0FFF7AEFF04E000F084F825
:10191000204600F025F9257720680169C943C906EA
:1019200017D4C168C943C90613D46FF0100101610F
:10193000082020772068C06910F4407F204602D03C
:10194000FFF791FF04E000F067F8204600F008F987
:10195000257720680169C943C90708D1C168C9430F
:10196000C90704D1891E0161204600F045F92068AD
:101970000169C943090609D4C168C943090605D4E8
:101980006FF0800101612046FFF7DEFD20680169EC
:10199000C943490609D4C168C943490605D46FF053
:1019A00040010161204600F028F920680169C9431F
:1019B00089060BD4C168C943890607D46FF020019A
:1019C00001612046BDE87040FFF7BFBD70BD00005B
:1019D00000B585B00021009101910291039100684A
:1019E000B0F1804F11D10A48816941F00401816151
:1019F0008069694600F0040004900C2000900220E9
:101A0000019003900348FEF7EDFF05B000BD000014
:101A10000010024000080140704770B5044690F87D
:101A20003C000D4601280AD0012084F83C0042B158
:101A3000042A18D0082A2AD00C2A4DD139E00220D5
:101A400070BD206801F00CF92068816941F008013F
:101A500081612068816921F00401816120688169C8
:101A60002A69114311E0206801F022F92068816998
:101A700041F4006181612068816921F480618161A4
:101A8000206881692A6941EA0221816124E0206895
:101A900001F03AF92068C16941F00801C16120688C
:101AA000C16921F00401C1612068C1692A6911433B
:101AB00011E0206801F054F92068C16941F4006127
:101AC000C1612068C16921F48061C1612068C16978
:101AD0002A6941EA0221C161002084F83C0070BDFE
:101AE00010B5040003D094F83D0010B107E00120C8
:101AF00010BD002084F83C00204600F01FF80220B2
:101B000084F83D00211D206801F06EF8012084F862
:101B1000460084F83E0084F83F0084F8400084F8D2
:101B2000410084F8420084F8430084F8440084F8BB
:101B3000450084F83D00002010BD000008B5006895
:101B4000B0F1804F08D10548C16941F00101C16180
:101B5000C06900F00100009008BD000000100240C4
:101B60007047000010B50446022249B104290ED086
:101B7000082913D094F84100012816D0012010BD87
:101B800094F83E000128F9D184F83E200FE094F843
:101B90003F000128F2D184F83F2008E094F840008B
:101BA0000128EBD184F8402001E084F84120012293
:101BB000206801F047F80E492068884203D1426C42
:101BC00042F4004242642068884205D0B0F1804F60
:101BD00002D00849884204D1816801F00701062932
:101BE00003D0016841F001010160002010BD000038
:101BF000002C0140000400407047704770B504009D
:101C000004D094F83D00002510B106E0012070BD1D
:101C100084F83C50204600F023F8242084F83D004E
:101C20002068C16821F40051C160204601F0BAF873
:101C30002068016921F4904101612068416921F027
:101C40002A0141612068C16841F40051C1602564E6
:101C5000202084F83D0084F83E00002070BD000084
:101C600030B585B000240094019402940394006878
:101C7000174988422AD11748816941F4804181611E
:101C8000816901F480410491816941F00801816119
:101C90008069114D00F0080004904020009002205F
:101CA00001900320039069462846FEF79BFE8020A2
:101CB000CDE90004694628460294FEF793FE0748E2
:101CC000416841F0E06141F00401416005B030BD80
:101CD0000038014000100240000C014000000140AB
:101CE0002DE9F843044690F83D001F4616460D4680
:101CF00020284CD1C5B1BEB194F83C00012846D093
:101D0000012084F83C004FF00008C4F840802120F6
:101D100084F83D00FEF750FFA6848146E684A06863
:101D2000B0F5805F03D004E00120BDE8F8832069AE
:101D300028B12E465FF0000584F83C800EE00026B6
:101D4000FAE78021204601F089F8A0B9AEB116F873
:101D5000010B21684860E08C401EE084E08C4B461B
:101D60004FF0000200970028EBD14FF040012046D1
:101D700001F074F830B10320D7E735F8020BC0F357
:101D80000800E6E7202084F83D000020CDE702208F
:101D9000CBE7FEE701684A69D24352050FD46FF4DE
:101DA00080624A61002140F8301F20224273817313
:101DB000026942F0040202610173012070470020B1
:101DC000704700002DE9F843044600680D46DDE940
:101DD000089701689846164641F4807101604B46A9
:101DE00000224FF001112046009700F065F848B13D
:101DF00020680068C00502D54FF4007020640320FD
:101E0000BDE8F883216805F0FE0008613B464A46BC
:101E10001549204600F084F888B920684169806936
:101E200000903A464946204600F0C5F848B1206C7B
:101E3000042804D12068016841F400710160012088
:101E4000DEE7F5B2B8F1010F09D02168300A086168
:101E50003A464946204600F0AEF80028E7D120680F
:101E600005610020CCE700000200010070B51646B5
:101E70000D4604460DE02046FFF78CFF08B1012017
:101E800070BD681C05D0FEF797FE801BA84207D8DE
:101E900035B120684069C0434007ECD4002070BDD4
:101EA000002044F8300F20216173A073216941F0B4
:101EB000200121612073E2E72DE9F0471E4690469C
:101EC0000D460446C1F30747DDF8209008E0701C7A
:101ED00006D0FEF771FEA0EB0900B0420FD876B134
:101EE0002068012F18D0806925EA00000004000C4A
:101EF00014D000214145EAD00020BDE8F087002041
:101F000044F8300F20216173A073216941F0200152
:101F1000216120730120F0E74069E5E70121E9E74D
:101F20002DE9F0479A4691460E46044600254FF0AB
:101F30002008C1F3074725E020684069C0434005F9
:101F400014D42068016841F40071016021686FF4C5
:101F500080604861256384F83D8084F83E50206CA1
:101F600040F00400206484F83C501FE0B9F1FF3FCA
:101F700008D0FEF721FEA0EB0A0149450CD8B9F1C3
:101F8000000F09D02068012F13D0806926EA0000D5
:101F90000004000C0BD0CFE744F8305F84F80D80CC
:101FA000A573206940F02000206125730120BDE861
:101FB000F0874069EAE770B516460D4604460DE025
:101FC0002046FFF7E7FE08B1012070BD681C05D070
:101FD000FEF7F2FD801BA84207D835B120684069A2
:101FE000C0430006ECD4002070BD002044F8300F40
:101FF00020216173A073216941F0200121612073C8
:10200000E2E700002DE9FF4F91B0CE48DDE91E89DF
:102010000090CD481E4601680491D0E9015102911B
:10202000C068049901900846FEF7F8F829460D901B
:102030000846FEF7F3F80C9002990846FEF7EEF812
:102040000B9001990846FEF7E9F80A902946049892
:10205000FEF7E4F8099002990498FEF7DFF883464A
:1020600028460199FEF7DAF88246DDE90110FEF70D
:10207000D5F8B64C0690D4E90301FEF7CFF86169B4
:10208000FEF7CCF810F0FF4F7ED049460846FEF729
:10209000C5F8074641460846FEF7C0F804463146F3
:1020A0000846FEF7BBF82146FEF760F83946FEF712
:1020B0005DF801F07BFA044601463046FEF7AEF8C3
:1020C000149021464046FEF7A9F81E902146484646
:1020D000FEF7A4F8814659465046FEF799F80121CB
:1020E000FEF70CF9074606990998FEF73FF801211B
:1020F000FEF704F90646DDE90C10FEF789F80B99A6
:10210000FEF786F80A99FEF731F80446314648464C
:10211000FEF784F8804621461E98FEF77FF8414678
:10212000FEF776F8824621461498FEF777F80446C3
:1021300039464846FEF772F82146FEF769F88346AD
:1021400039461E98FEF76AF8044631461498FEF7A1
:1021500065F82146FEF75CF8814651460098FEF787
:102160005DF8794C3C3C216BFEF700F8804620631B
:1021700059460098FEF752F8616BFDF7F7FF0646E7
:1021800060634946009800E0D8E0FEF747F8A16B8D
:10219000FDF7ECFF0746A063206941460590FEF776
:1021A0003DF88046E06851460790FEF737F81199F0
:1021B000FDF7DCFF4146FDF7D9FF82463146059821
:1021C000FEF72CF8044659460798FEF727F81299AF
:1021D000FDF7CCFF2146FDF7C9FF064639460598B5
:1021E000FEF71CF8044649460798FEF717F81399BE
:1021F000FDF7BCFF2146FDF7B9FF044601460198F3
:10220000FEF70CF8074631460298FEF707F88046BD
:1022100085F000405146FEF701F84146FDF7F8FF12
:102220003946FDF7F5FF0099FDF7F8FF0499FDF732
:102230009DFF074631460198FDF7F0FF8046214695
:102240000298FDF7EBFF814639465046FDF7E6FF61
:102250004946FDF78BFF4146FDF7DAFF0099FDF790
:10226000DDFF2946FDF782FF054650460199FDF73F
:10227000D5FF804621462846FDF7D0FF81463146EE
:102280003846FDF7CBFF4946FDF7C2FF4146FDF753
:102290006DFF0099FDF7C2FF0299FDF767FF8046C9
:1022A00001465046FDF7BAFF814631462846FDF704
:1022B000B5FF064621463846FDF7B0FF3146FDF72B
:1022C00055FF4946FDF7A4FF0099FDF7A7FF0199C7
:1022D000FDF74CFF04460146FDF7A0FF814641464D
:1022E0000846FDF79BFF064629460846FDF796FF80
:1022F000824639460846FDF791FF5146FDF736FF05
:102300003146FDF733FF4946FDF730FF01F04EF946
:10231000064601463846FDF781FF0B4F31463860CF
:102320002846FDF77BFF786031464046FDF776FF93
:10233000B86031462046FDF771FFF86015B0BDE882
:10234000F08F00000AD7A33B3C000020BC00002017
:102350002DE9FC47DFF8A89001F04EF901F062F991
:1023600000F05EF82748D0E90412CDE900120FC84A
:10237000FFF748FE2448234CA0F13C08D0E9002692
:10238000D0E902570C3C10462168C8F8141001210E
:10239000FDF7B4FF2946FDF741FF05464FF04041E8
:1023A0003046FDF73BFF3946FDF738FF2946FDF77C
:1023B000DDFEFEF79AF900F003FF0022134BFEF753
:1023C00050F8134A134BFEF7BEF8FEF7A1F9064684
:1023D0001148D8F81410FDF721FF0546314648464C
:1023E000FDF71CFF2946FDF7C1FE014620600B48A2
:1023F00001F026FA094880682060BDE8FC870000EB
:102400009A99993EBC0000203C0000200080664064
:102410004AD8124DFB2109403333333F7800002066
:102420002DE9F05F604CE068FEF75FF9DFF87C8132
:102430004FF0663632464346FEF713F805465C48D1
:102440000F46B0F90600FEF712F94FF0333B5A463B
:10245000584BFEF706F86FF00B094A46FEF7E2F814
:102460002A463B46FDF756FFFEF752F9E060206929
:10247000FEF73BF932464346FDF7F3FF05464C486D
:102480000F46B0F90800FEF7F2F85A46494BFDF73F
:10249000E8FF4A46FEF7C6F82A463B46FDF73AFFF4
:1024A000FEF736F920616069FEF71FF932464346B0
:1024B000FDF7D7FF06463E480D46B0F90A00FEF785
:1024C000D6F85A463B4BFDF7CCFF4A46FEF7AAF832
:1024D00032462B46FDF71EFFFEF71AF960613448BD
:1024E000B0F90000FEF7B5F804F118052968FDF70A
:1024F0008FFEFEF7FAF85A462E4BFDF7B2FFDFF8D3
:10250000B890DFF8B8A04A465346FDF7AAFF2C4E14
:1025100000223346FEF717F8DFF8A8804FF0C047D7
:102520003A464346FEF70FF8FEF7F2F820602048DF
:10253000B0F90200FEF78DF86968FDF769FEFEF755
:10254000D4F85A461B4BFDF78CFF4A465346FDF71D
:1025500088FF00223346FDF7F6FF3A464346FDF773
:10256000F2FFFEF7D5F860601148B0F90400FEF7FD
:1025700070F8A968FDF74CFEFEF7B7F85A460D4B08
:10258000FDF76FFF4A465346FDF76BFF00223346C7
:10259000FDF7D9FF3A464346FDF7D5FFFEF7B8F8F9
:1025A000A060BDE8F09F0000BC0000206666E63F2A
:1025B000000000203333D33F4AD8124DFB2109409D
:1025C00000806640666630402DE9F04786B0002402
:1025D00031480094019402940394816941F0100100
:1025E0008161816901F010010491816941F020014C
:1025F0008161816901F020010491816941F0040148
:102600008161816901F004010491816941F008014F
:1026100081618069DFF8848000F008004FF4005584
:102620000490002229464046FEF7C1FADFF8709078
:10263000002260214846FEF7BAFADFF868A04FF2A0
:102640000107002239465046FEF7B1FA00950226EE
:1026500001250396CDE9015469464046FEF7C2F9CB
:102660006020CDE90005CDE9024669464846FEF7FF
:10267000B9F98020CDE90004694648460294FEF786
:10268000B1F900970396CDE9015469465046FEF72B
:10269000A9F906B0BDE8F087001002400010014023
:1026A00000080140000C01400D4810B50B490160C5
:1026B0000C49416000214FF480428160C0E903125F
:1026C00041618161C1610162FEF77CFA002803D09B
:1026D000BDE81040FEF772B910BD00000054004084
:1026E000F0050020A086010010B58CB024216846BA
:1026F000FDF731FD00241748099415490A94C0E9F3
:1027000000144FF6FF71C0E9024180210461C0E965
:1027100005410320CDE900040120CDE90204049421
:10272000CDE90540079469460A480894FEF788FFFA
:1027300008B1FEF743F9099409A906480A94FEF77F
:1027400005FF002801D0FEF739F90CB010BD0000DC
:10275000002C01404406002030B589B000240794C5
:102760001C2168460894FDF7F6FC1C484FF0804198
:10277000802501604721C0E9011440F2E7318561FD
:10278000C0E90314FFF7ACF908B1FEF717F92020F0
:10279000CDE9070507A91148FEF7D8FE08B1FEF7F5
:1027A0000DF9602000904FF4FA70CDE90104082281
:1027B00069460A480494FFF730F908B1FEF7FEF8BD
:1027C0000C2269460548FFF728F908B1FEF7F6F82C
:1027D0000248FFF7FDF809B030BD00008C0600206C
:1027E00010B58CB024216846FDF7B5FC00241648CE
:1027F000099414490A94C0E900144FF6FF71C0E926
:1028000002418021046181610320CDE9000401209F
:10281000CDE902040494CDE90540079469460A48CD
:102820000894FEF70DFF08B1FEF7C8F8099409A94E
:1028300005480A94FEF78AFE002801D0FEF7BEF88C
:102840000CB010BD00040040D40600200C4810B5A8
:102850000A4901604FF4E1314160002181600C229E
:10286000C160C0E904128161C161FFF7C7F90028A6
:1028700003D0BDE81040FEF7A1B810BD00380140FC
:102880001C070020FEE7FEE730B40021084B0A4693
:102890005FF0000003EBC004401CC0B2625480280B
:1028A000F8D3491CC9B20829F2D330BC00F06CB887
:1028B000E000002010B50021AE2000F08BF80021D0
:1028C000D52000F087F80021502000F083F8002187
:1028D000A82000F07FF800213F2000F07BF80021C5
:1028E000D32000F077F80021084600F073F80021AB
:1028F000402000F06FF800218D2000F06BF80021DF
:10290000142000F067F80021202000F063F8002177
:10291000022000F05FF80021A12000F05BF8002108
:10292000C02000F057F80021DA2000F053F8002111
:10293000122000F04FF80021812000F04BF8002118
:10294000EF2000F047F80021D92000F043F80021E3
:10295000F12000F03FF80021DB2000F03BF80021DF
:10296000302000F037F80021A42000F033F80021D7
:10297000A62000F02FF80021AF2000F02BF8BDE8D2
:102980001040FFF781BF000070B5114E002400BF5A
:1029900004F1B000C0B2002100F01CF8002108468C
:1029A00000F018F80021102000F014F85FF0000586
:1029B00006EBC5000121005D00F00CF86D1CEDB2C6
:1029C000802DF5D3641CE4B2082CE1D370BD000067
:1029D000E000002009B100F087BA00F073BA0000EF
:1029E0002DE9F04704460D46D4E90001FDF710FC3F
:1029F000214E8146494656F82500FDF7B7FB0746AC
:102A00001E480078FDF72EFE3946FDF707FC46F814
:102A1000250006F11C08074658F825104846FDF722
:102A2000F7FBA169FDF7FAFB064639466069FDF739
:102A3000F5FB074649462069FDF7F0FB3946FDF7EF
:102A400095FB3146FDF792FB206248F82590D4E9CA
:102A50000801FDF779FE01D2606A2062606A216A8E
:102A600080F00040FDF770FE03D2606A80F0004005
:102A70002062BDE8F0870000180500204C0000200F
:102A800015481449174B8163144901640021C1633F
:102A900081644164C16240F8281F114A83638160E8
:102AA000114B03648164114B4164C363C162C0E98B
:102AB00009210F4BC36401630E4B03660E4B836603
:102AC0000167C16641650D4B0165436642678165DB
:102AD000704700000AD7233C500500200AD7A33BCB
:102AE00000007A44000008420000F042CDCCCC3D0A
:102AF000000016443333F33F0000A0419A99993EF9
:102B00007047704770B50F4C00252088401C80B27C
:102B10002080052808D12580FFF71AFC0A48007894
:102B2000012801D100F084FC6088401C80B26080E4
:102B3000052802D1658000F0F1FCBDE87040FEF789
:102B4000DBB90000920000209000002030B58FB06B
:102B500028216846FDF7FFFA14210AA8FDF7FBFAC1
:102B600001210804CDE900100024029402250491FB
:102B7000CDE907504FF4E01009906846FEF740FB9E
:102B800008B172B6FEE70F20CDE90A054FF4806068
:102B9000CDE90C4002210AA80E94FEF745FA002860
:102BA00001D072B6FEE70FB030BD70470148FEF7A6
:102BB0005BBE0000440600200148FEF755BE000041
:102BC000440600200148FEF74FBE000044060020E6
:102BD0000148FEF749BE0000440600200148FEF708
:102BE00043BE0000D406002070B50268134B144C9D
:102BF0004FF08046984203D0B04201D0A04203D1AA
:102C000022F070054A682A43984203D0B04201D0AE
:102C1000A04203D122F44074CA6822434C6922F0D6
:102C20008002224302608A68C2620A688262984215
:102C300001D1096901630121416170BD002C01408E
:102C40000004004010B501F01F030121046A9940FF
:102C50008C430462016A9A401143016210BD000076
:102C600030B5026A22F001020262026A4368846996
:102C700024F073050C682C4322F002058A682A436D
:102C80000A4DA8420BD122F00805CA6823F440730C
:102C90002A434D6922F004021D438B692B43436094
:102CA000846149684163026230BD0000002C01402C
:102CB00030B5026A22F010020262026A4368846937
:102CC0000D6824F4E64444EA05248D6822F02002CD
:102CD00042EA05120B4DA8420ED1CD6822F08002C7
:102CE00042EA05124D6923F4406343EA85038D6986
:102CF00022F0400243EA85034360846149688163AE
:102D0000026230BD002C014030B5026A22F48072AC
:102D10000262036A4268C46923F4007324F07305F5
:102D20000C682C438D6843EA05230C4DA8420ED154
:102D3000CD6823F4006343EA05234D6922F4405231
:102D400042EA05128D6923F4806342EA051242606B
:102D5000C4614968C163036230BD0000002C0140BA
:102D600030B5026A22F480520262046A4268C36982
:102D70000D6823F4E64343EA05238D6824F40054E8
:102D800044EA0534064DA84204D14D6922F480423C
:102D900042EA85124260C36149680164046230BD41
:102DA000002C014070B5044600680169E26821F416
:102DB0004051114301612169A068084361690843DA
:102DC0002168CA6841F20C639A430243CA602068D2
:102DD0004169A26921F44071114341611E49206893
:102DE000884202D1FEF7C6F901E0FEF7B3F900EB25
:102DF000C00101EB0012606864218000B2FBF0F3B7
:102E0000B3FBF1F36FF018067343B2FBF0F5B2FBBE
:102E1000F0F605EB8305322303EB0515B5FBF1F561
:102E2000B6FBF1F605F0F00505EB0615B2FBF0F682
:102E3000B2FBF0F0B0FBF1F06FF01802504306EB7C
:102E4000800003EB0010B0FBF1F0216800F00F00F0
:102E50002844886070BD0000003801402DE9F04131
:102E6000984617460E460446069D1DE0681C1BD07A
:102E70002DB1FDF7A1FEA0EB0800A84214D92068EF
:102E8000C16821F4D071C1602068416921F001015D
:102E90004161202084F83D0084F83E00002084F841
:102EA0003C000320BDE8F0812068006836EA00009D
:102EB00004D00020B842D9D00020F3E70120F9E780
:102EC000FEE7000001B584B0012104A864228DE86A
:102ED00007000B46002278210248FDF737FF05B0B6
:102EE00000BD0000F005002001B584B0012104A858
:102EF00064228DE807000B46402278210248FDF746
:102F000025FF05B000BD0000F00500200FB4054B03
:102F100010B503A9044A029800F0A8F810BC5DF8A7
:102F200014FB0000E1350008A8000020490050EA29
:102F3000C12018BF04204A0D18BF40F0010040F224
:102F4000FF72B2EB515F08BF40F00200012808BFDA
:102F5000052070470907090E002804DB00F1E02076
:102F600080F80014704700F00F0000F1E02080F8B6
:102F7000141D70472DE9F0414F1E00EBC7010446B8
:102F8000D1E9000115461E4637F006020DD02A464B
:102F90003346FDF766FA7F1E04EBC703D3E900232F
:102FA000FDF7B8F937F00602F1D1022F25D0042F32
:102FB00013D0062F18BFBDE8F0812A463346FDF72F
:102FC00050FAD4E90A23FDF7A5F92A463346FDF75E
:102FD00048FAD4E90823FDF79DF92A463346FDF760
:102FE00040FAD4E90623FDF795F92A463346FDF762
:102FF00038FAD4E90423FDF78DF92A463346FDF764
:1030000030FAD4E90223FDF785F92A463346FDF765
:1030100028FAD4E90023BDE8F041FDF77BB901228D
:10302000FDF700BB0022134610461146FDF78BBA90
:10303000024A00201107FDF7F5BA000001FDFFFF6D
:1030400002E008C8121F08C1002AFAD17047704771
:10305000002001E001C1121F002AFBD170470000CF
:103060000149086070470000AC0000202DE9FF4FC7
:1030700089B09B460446002506E025280BD05A4619
:103080000B999047641C6D1C20780028F5D10DB079
:103090002846BDE8F08F0027B8460122474900E0E6
:1030A000074314F8013F203B02FA03F00842F7D12E
:1030B00020782E2819D114F8010F47F004072A2888
:1030C0000ED06FF02F022078A0F1300109290CD822
:1030D00008EB880102EB410100EB0108641CF2E7F8
:1030E0000A98641C50F8048B0A9020780028CED0EF
:1030F000642808D0692806D075281ED05A460B9936
:1031000090476D1C58E00A994FF00A0901C90A91CD
:10311000002802DA40422D2102E0390504D52B2196
:103120008DF82010012103E0F90704D02021F7E7F2
:103130008A4608AE0DE00021FAE70A994FF00A0925
:1031400001C90A91F7E74946FDF708FB303106F857
:10315000011D0028F7D1ADEB060000F1200978072A
:1031600001D44FF00108C84502DDA8EB090000E0DA
:1031700000208046002706E008A85A46C05D0B994B
:1031800090476D1C7F1C5745F6DB04E030205A4603
:103190000B9990476D1CB8F10001A8F10108F5DC0E
:1031A00005E016F8010B5A460B9990476D1CB9F1D2
:1031B0000001A9F10109F4DC641C65E7092801009C
:1031C0002DE9F04D8D4F21F0004A86B005460C46A2
:1031D000BA452ADBAAEB070028430AD08848824573
:1031E00001DC1AD1CDB106B02846BDE8F04DFFF79D
:1031F00016BF844A844B2846FDF733F907460E462E
:10320000824A834B28462146FDF72BF906B03A4601
:103210003346BDE8F04DFDF77DB80120FFF720FFF4
:1032200006B0BDE8F04DFFF7FDBE7A48824542DAB0
:10323000BAF1795F0BDA2846FFF778FE042808BF59
:10324000FFF7F6FE284606B02146BDE8F08D2A4677
:103250000B461046FDF705F9834602466E480E46BA
:103260000B4606217844FFF785FE5A463346FDF7A4
:10327000F8F8804669488A465A463346042178441D
:10328000FFF778FE5A463346FDF7EBF800223B463F
:10329000FDF740F802460B4640465146FDF753F90C
:1032A0002A462346FDF7DDF806B02A462346BDE848
:1032B000F04DFDF72FB8284624F0004100223D468E
:1032C0003B46FDF7CBF84FF0FF32FDF7ABF9064672
:1032D000024653480F460B4606217844FFF74AFE44
:1032E00032463B46FDF7BDF8CDE900014D48324678
:1032F0003B4604217844FFF73DFE32463B46FDF74E
:10330000B0F800222B46FDF705F8834602913046BF
:10331000394600F0C3FB804643480D46504517DC54
:10332000DDE900015A46029BFDF70DF942462B46A6
:10333000FDF797F842462B46FCF7ECFF0122FDF71C
:1033400071F9304A304BFDF786F8304A304B4CE08B
:103350004FF0000A52460B464046FCF7DBFFCDE932
:10336000031052462B4610461946FDF77AF83246AE
:103370003B46FDF773F8DDE90332FDF7E4F8064656
:103380000F46DDE900015A46029BFDF7DCF8834653
:103390000091012230463946FDF744F9194A1A4B8B
:1033A000FDF75CF806460F46012240462946FDF728
:1033B00039F95A46009BFDF754F832463B46FDF773
:1033C0004AF806460F46012250462946FDF72AF9DB
:1033D0000E4DDFF858802A464346FDF73FF8324647
:1033E0003B46FDF73BF82A464346FDF737F8002CED
:1033F000D8BF81F0004106B0BDE8F08D0000F03F7D
:103400000000F07F075C143326A6913C182D44542D
:10341000FB21F93F0000E03F98080000AE080000E3
:1034200022080000380800003333EF3FFB21E93F5A
:1034300010B5002000F05EF800F004F8BDE8104080
:1034400000F01EB810B50A4CA06C20650948006851
:10345000FDF74BF9084A094BFCF75CFFFDF758F9FB
:10346000606504F15000BDE810400221FFF7B8BAD2
:1034700050050020B00000209A9999999999F93F38
:1034800070B5194C174E0025B4F90000FDF7E1F8AE
:103490003146FCF7C3FE2946FCF768FEFDF7F8F855
:1034A00000B22080FDF7D5F80146104800F0C8F9B9
:1034B0000E488068FDF7ECF800B220800C4C10300C
:1034C000216FA167FDF7C5F8E067032104F17800DB
:1034D000FFF786FAD4F89800BDE87040014600F086
:1034E0002DBA00009A99993E020000206000002049
:1034F0005005002010B5074CA06207480068FDF792
:10350000A8F8E06204F12800BDE810400121FFF7AF
:1035100067BA000050050020500000202DE9F04758
:103520001E48DFF874900068466A1D4C0021416215
:103530001C480068476A4162A068FDF78AF8DFF816
:10354000688001464046FCF769FE05463046FDF7B7
:1035500080F84946FCF762FE2946FCF707FEFDF7B6
:1035600097F806462060E068FDF773F8014640468C
:10357000FCF754FE05463846FDF76BF84946FCF764
:103580004DFE2946FCF7F2FDFDF782F86060C4E9C4
:103590000260BDE8F08700009A99993E4406002039
:1035A00050000020D40600203333333F10B50446CA
:1035B0004FF0FF31FCF7A2FE0849A1EB640421465D
:1035C000FCF72CFE2146FCF729FE4FF07F51FCF75B
:1035D00022FE2146BDE81040FCF720BEDF59375FD0
:1035E00013B54FF6FF73012269460248FEF778FBD8
:1035F00000981CBD1C0700201CB5062269463B2014
:1036000000F0BCF8BDF8000041BA0548C180BDF823
:10361000021049BA0181BDF8041049BA41811CBDAC
:10362000000000201CB506226946432000F0A6F8E1
:10363000BDF8000041BA05480180BDF8021049BA42
:103640004180BDF8041049BA81801CBD00000020F3
:1036500070B51D4C00251D4E25606560C4F80850EE
:10366000FFF7CAFFFFF7DEFFB6F90000FCF7F1FF36
:103670002168FCF77BFD2060B6F90200FCF7E9FF4A
:103680006168FCF773FD6060B6F90400FCF7E1FFC8
:10369000A168FCF76BFDA0600220FDF791F96D1C9D
:1036A000642DDDDB0A4D20682946FCF7E9FD20602A
:1036B00029466068FCF7E4FD60602946A068FCF7D5
:1036C000DFFDA06070BD0000D400002000000020DD
:1036D0000000C84208B500F02CF880216B2000F0F3
:1036E0006FF80220FDF76CF969466B2000F02CF8AA
:1036F0009DF800004128F7D101216B2000F060F80F
:1037000000216C2000F05CF801211A2000F058F82C
:103710000721192000F054F818211B2000F050F860
:1037200010211C2000F04CF803211D2000F048F867
:1037300008BD08B56946752000F006F89DF8000040
:103740001228F7D108BD000070B50B4E0C46054697
:10375000002201213046FDF72AFA45F0800000F0F2
:1037600047F8002000F044F820703046BDE8704073
:1037700001221146FDF71BBA000C01402DE9F04172
:103780000E4F15460E460446002201213846FDF72D
:103790000EFA44F0800000F02BF8002405E0002031
:1037A00000F026F83055641CA4B2AC42F7D338467A
:1037B000BDE8F04101221146FDF7F9B9000C0140C6
:1037C00070B50A4C0E460546002201212046FDF741
:1037D000EEF9284600F00CF8304600F009F82046D3
:1037E000BDE8704001221146FDF7E1B9000C01402F
:1037F0002DE9F041114E0546002400BF05F080027E
:1038000040213046FDF7D3F96806070E002220213B
:103810003046FDF7CCF980213046FDF7C3F940EA88
:103820000705012220213046FDF7C1F9641CE4B2EE
:10383000082CE3D32846BDE8F081000000080140D1
:103840002DE9F0418846044601690068FCF78EFCCA
:10385000606007466169FCF789FC01463846FCF761
:103860000FFDE060A568064629464046FCF7D0FCFF
:103870003146FCF7D3FC2946FCF778FC0546A060EE
:1038800031464FF07E50FCF7C3FC3946FCF7C6FCCE
:1038900020602846BDE8F081FDF736FBFFF756F9BA
:1038A000FEF792FEFEF7D2FFFEF7FEFEFEF71CFFCC
:1038B000FEF752FFFEF794FFFFF7E2F8FFF70AFF6B
:1038C000FFF7C6FEFEF7F6FFFEF7DEFF1548FDF731
:1038D0008FFE08211348FEF745F9124C6FF00800DF
:1038E000216808610C212046FEF73CF921686FF041
:1038F0000C0008612046FDF759FE3C210A48FDF7FF
:103900006BFF3C210948FDF767FF074C074D00BFDF
:10391000FFF704FE2068416A2868426A04A0FFF7A6
:10392000F5FAF5E78C06002044060020D4060020B6
:1039300025642C25642C330A000000002DE9F05F7B
:103940000C460546504951488D4201DD0D4602E0C6
:10395000854200D905468C4201DD0C4602E08442D6
:1039600000D904464FF40008494F4A4E45450EDB46
:10397000002279143846FDF71AF90122110338465E
:10398000FDF715F92846FCF79CFE3168C863DFF89F
:1039900008914D4511D3012285F000455103384669
:1039A000FDF705F900224FF480513846FDF7FFF886
:1039B0002846FCF786FE3168C8634FF4804A4FF40E
:1039C000004B44450EDB002251463846FDF7EFF828
:1039D000012259463846FDF7EAF82046FCF771FE09
:1039E000316808644C4510D384F0004401225146EC
:1039F0003846FDF7DCF8002259463846FDF7D7F87F
:103A00002046FCF75EFE3168086415F0FF4F4FF06A
:103A1000000519D1002251463846FDF7C8F80022AA
:103A200059463846FDF7C3F800224FF40051384696
:103A3000FDF7BDF800224FF480513846FDF7B7F886
:103A4000306805643068C56314F0FF4F19D1002257
:103A500051463846FDF7ABF8002259463846FDF787
:103A6000A6F800224FF400513846FDF7A0F80022D6
:103A70004FF480513846FDF79AF830680564306895
:103A8000C563BDE8F09F000000007A4400007AC4DE
:103A9000000C01408C060020000080802DE9F041E0
:103AA00006460F46FCF725FF041E0D4618BF0120F1
:103AB000284320F00040C0F17F6000F1E040C00FDB
:103AC0000ED0301C18BF0120384320F00040C0F158
:103AD0007F6000F1E040C00F04BF0120FFF7C0FA93
:103AE00020462946BDE8F0810000000000000000EB
:103AF0000102030406070809000000000102030494
:103B0000555555555555C53F7D6FEB0312D6D4BF5E
:103B10005544880E55C1C93F3B8F68B52882A4BF64
:103B200088B20175E0EF493F09F7FD0DE13D023F25
:103B30004B2D8A1C273A03C0C88A599CE52A0040AD
:103B400059018D1B6C06E6BF82922EB1C5B8B33FFA
:103B5000703B000800000020B0000000403000086A
:103B6000203C0008B0000020B00A000050300008DF
:103B700000000000000000000000000000002041E4
:103B80000AD7233C000000000000000000000000F5
:103B90000000000000000000000000000000000025
:103BA0000000000000000000000000000000803F56
:103BB0000000000000000000000000000101000003
:103BC00000000000000000000000000000000000F5
:103BD0000AD7A33C00000000000000000000000025
:103BE0006F12833A0C020B3F0AD7A33C000000007F
:103BF00000000000000000006F12833A0C020B3F2F
:103C000000000000000000000100000010000000A3
:103C1000000000000024F40000000000000000008C
:04000005080000ED02
:00000001FF
